{
  "contractName": "RentBasic",
  "abi": [
    {
      "constant": true,
      "inputs": [],
      "name": "hsReleaseInfo",
      "outputs": [
        {
          "name": "state",
          "type": "uint8"
        },
        {
          "name": "tenancy",
          "type": "uint32"
        },
        {
          "name": "rent",
          "type": "uint256"
        },
        {
          "name": "releaseTime",
          "type": "uint256"
        },
        {
          "name": "updateTime",
          "type": "uint256"
        },
        {
          "name": "dealineTime",
          "type": "uint256"
        },
        {
          "name": "existed",
          "type": "bool"
        }
      ],
      "payable": false,
      "stateMutability": "view",
      "type": "function"
    },
    {
      "constant": true,
      "inputs": [],
      "name": "punishAmount",
      "outputs": [
        {
          "name": "",
          "type": "uint256"
        }
      ],
      "payable": false,
      "stateMutability": "view",
      "type": "function"
    },
    {
      "constant": true,
      "inputs": [
        {
          "name": "",
          "type": "bytes32"
        },
        {
          "name": "",
          "type": "address"
        }
      ],
      "name": "bonds",
      "outputs": [
        {
          "name": "",
          "type": "uint256"
        }
      ],
      "payable": false,
      "stateMutability": "view",
      "type": "function"
    },
    {
      "constant": true,
      "inputs": [
        {
          "name": "",
          "type": "bytes32"
        }
      ],
      "name": "hsReleaseInfos",
      "outputs": [
        {
          "name": "state",
          "type": "uint8"
        },
        {
          "name": "tenancy",
          "type": "uint32"
        },
        {
          "name": "rent",
          "type": "uint256"
        },
        {
          "name": "releaseTime",
          "type": "uint256"
        },
        {
          "name": "updateTime",
          "type": "uint256"
        },
        {
          "name": "dealineTime",
          "type": "uint256"
        },
        {
          "name": "existed",
          "type": "bool"
        }
      ],
      "payable": false,
      "stateMutability": "view",
      "type": "function"
    },
    {
      "constant": true,
      "inputs": [
        {
          "name": "",
          "type": "bytes32"
        }
      ],
      "name": "remarkTenants",
      "outputs": [
        {
          "name": "leaser",
          "type": "address"
        },
        {
          "name": "ratingIndex",
          "type": "uint8"
        },
        {
          "name": "remarkTenant",
          "type": "string"
        },
        {
          "name": "operateTime",
          "type": "uint256"
        }
      ],
      "payable": false,
      "stateMutability": "view",
      "type": "function"
    },
    {
      "constant": true,
      "inputs": [],
      "name": "distributeRemarkAddr",
      "outputs": [
        {
          "name": "",
          "type": "address"
        }
      ],
      "payable": false,
      "stateMutability": "view",
      "type": "function"
    },
    {
      "constant": true,
      "inputs": [
        {
          "name": "",
          "type": "address"
        }
      ],
      "name": "creditManager",
      "outputs": [
        {
          "name": "",
          "type": "uint256"
        }
      ],
      "payable": false,
      "stateMutability": "view",
      "type": "function"
    },
    {
      "constant": true,
      "inputs": [],
      "name": "owner",
      "outputs": [
        {
          "name": "",
          "type": "address"
        }
      ],
      "payable": false,
      "stateMutability": "view",
      "type": "function"
    },
    {
      "constant": true,
      "inputs": [],
      "name": "receiverPromiseMoney",
      "outputs": [
        {
          "name": "",
          "type": "address"
        }
      ],
      "payable": false,
      "stateMutability": "view",
      "type": "function"
    },
    {
      "constant": true,
      "inputs": [
        {
          "name": "",
          "type": "bytes32"
        }
      ],
      "name": "houseInfos",
      "outputs": [
        {
          "name": "landRate",
          "type": "uint8"
        },
        {
          "name": "ratingIndex",
          "type": "uint8"
        },
        {
          "name": "huxing",
          "type": "uint8"
        },
        {
          "name": "houseAddress",
          "type": "string"
        },
        {
          "name": "houseId",
          "type": "bytes32"
        },
        {
          "name": "descibe",
          "type": "string"
        },
        {
          "name": "landlordInfo",
          "type": "string"
        },
        {
          "name": "hopeYou",
          "type": "string"
        },
        {
          "name": "landlord",
          "type": "address"
        }
      ],
      "payable": false,
      "stateMutability": "view",
      "type": "function"
    },
    {
      "constant": true,
      "inputs": [],
      "name": "remarkAmount",
      "outputs": [
        {
          "name": "",
          "type": "uint256"
        }
      ],
      "payable": false,
      "stateMutability": "view",
      "type": "function"
    },
    {
      "constant": true,
      "inputs": [
        {
          "name": "",
          "type": "address"
        }
      ],
      "name": "addrMoney",
      "outputs": [
        {
          "name": "",
          "type": "uint256"
        }
      ],
      "payable": false,
      "stateMutability": "view",
      "type": "function"
    },
    {
      "constant": true,
      "inputs": [],
      "name": "relBalance",
      "outputs": [
        {
          "name": "",
          "type": "uint256"
        }
      ],
      "payable": false,
      "stateMutability": "view",
      "type": "function"
    },
    {
      "constant": true,
      "inputs": [],
      "name": "fail",
      "outputs": [
        {
          "name": "",
          "type": "bool"
        }
      ],
      "payable": false,
      "stateMutability": "view",
      "type": "function"
    },
    {
      "constant": true,
      "inputs": [],
      "name": "hsInformation",
      "outputs": [
        {
          "name": "landRate",
          "type": "uint8"
        },
        {
          "name": "ratingIndex",
          "type": "uint8"
        },
        {
          "name": "huxing",
          "type": "uint8"
        },
        {
          "name": "houseAddress",
          "type": "string"
        },
        {
          "name": "houseId",
          "type": "bytes32"
        },
        {
          "name": "descibe",
          "type": "string"
        },
        {
          "name": "landlordInfo",
          "type": "string"
        },
        {
          "name": "hopeYou",
          "type": "string"
        },
        {
          "name": "landlord",
          "type": "address"
        }
      ],
      "payable": false,
      "stateMutability": "view",
      "type": "function"
    },
    {
      "constant": true,
      "inputs": [
        {
          "name": "",
          "type": "address"
        }
      ],
      "name": "l2rMaps",
      "outputs": [
        {
          "name": "",
          "type": "address"
        }
      ],
      "payable": false,
      "stateMutability": "view",
      "type": "function"
    },
    {
      "constant": true,
      "inputs": [],
      "name": "promiseAmount",
      "outputs": [
        {
          "name": "",
          "type": "uint256"
        }
      ],
      "payable": false,
      "stateMutability": "view",
      "type": "function"
    },
    {
      "constant": true,
      "inputs": [],
      "name": "saveTenanantAddr",
      "outputs": [
        {
          "name": "",
          "type": "address"
        }
      ],
      "payable": false,
      "stateMutability": "view",
      "type": "function"
    },
    {
      "constant": true,
      "inputs": [],
      "name": "token",
      "outputs": [
        {
          "name": "",
          "type": "address"
        }
      ],
      "payable": false,
      "stateMutability": "view",
      "type": "function"
    },
    {
      "constant": true,
      "inputs": [
        {
          "name": "",
          "type": "bytes32"
        }
      ],
      "name": "remarks",
      "outputs": [
        {
          "name": "tenant",
          "type": "address"
        },
        {
          "name": "ratingIndex",
          "type": "uint8"
        },
        {
          "name": "remarkLandlord",
          "type": "string"
        },
        {
          "name": "operateTime",
          "type": "uint256"
        }
      ],
      "payable": false,
      "stateMutability": "view",
      "type": "function"
    },
    {
      "inputs": [
        {
          "name": "_token",
          "type": "address"
        }
      ],
      "payable": false,
      "stateMutability": "nonpayable",
      "type": "constructor"
    },
    {
      "anonymous": false,
      "inputs": [
        {
          "indexed": false,
          "name": "houseHash",
          "type": "bytes32"
        },
        {
          "indexed": false,
          "name": "_defaultState",
          "type": "uint8"
        },
        {
          "indexed": false,
          "name": "_tenancy",
          "type": "uint32"
        },
        {
          "indexed": false,
          "name": "_rent",
          "type": "uint256"
        },
        {
          "indexed": false,
          "name": "_releaseTime",
          "type": "uint256"
        },
        {
          "indexed": false,
          "name": "_deadTime",
          "type": "uint256"
        },
        {
          "indexed": false,
          "name": "existed",
          "type": "bool"
        }
      ],
      "name": "ReleaseInfo",
      "type": "event"
    },
    {
      "anonymous": false,
      "inputs": [
        {
          "indexed": false,
          "name": "houseHash",
          "type": "bytes32"
        },
        {
          "indexed": false,
          "name": "rating",
          "type": "uint8"
        },
        {
          "indexed": false,
          "name": "_houseAddr",
          "type": "string"
        },
        {
          "indexed": false,
          "name": "_huxing",
          "type": "uint8"
        },
        {
          "indexed": false,
          "name": "_describe",
          "type": "string"
        },
        {
          "indexed": false,
          "name": "_info",
          "type": "string"
        },
        {
          "indexed": false,
          "name": "_hopeYou",
          "type": "string"
        },
        {
          "indexed": true,
          "name": "_landlord",
          "type": "address"
        }
      ],
      "name": "ReleaseHouseBasicInfo",
      "type": "event"
    },
    {
      "anonymous": false,
      "inputs": [
        {
          "indexed": true,
          "name": "_sender",
          "type": "address"
        },
        {
          "indexed": false,
          "name": "_houseId",
          "type": "bytes32"
        },
        {
          "indexed": false,
          "name": "_signHowLong",
          "type": "uint256"
        },
        {
          "indexed": false,
          "name": "_rental",
          "type": "uint256"
        },
        {
          "indexed": false,
          "name": "_signatrue",
          "type": "bytes32"
        },
        {
          "indexed": false,
          "name": "_time",
          "type": "uint256"
        }
      ],
      "name": "SignContract",
      "type": "event"
    },
    {
      "anonymous": false,
      "inputs": [
        {
          "indexed": true,
          "name": "_commenter",
          "type": "address"
        },
        {
          "indexed": false,
          "name": "_rating",
          "type": "uint8"
        },
        {
          "indexed": false,
          "name": "_ramark",
          "type": "string"
        }
      ],
      "name": "CommentHouse",
      "type": "event"
    },
    {
      "anonymous": false,
      "inputs": [
        {
          "indexed": true,
          "name": "_sender",
          "type": "address"
        },
        {
          "indexed": false,
          "name": "_houseId",
          "type": "bytes32"
        },
        {
          "indexed": false,
          "name": "_realRent",
          "type": "uint256"
        },
        {
          "indexed": true,
          "name": "saveTenanantAddr",
          "type": "address"
        }
      ],
      "name": "RequestSign",
      "type": "event"
    },
    {
      "constant": false,
      "inputs": [
        {
          "name": "_houseAddr",
          "type": "string"
        },
        {
          "name": "_huxing",
          "type": "uint8"
        },
        {
          "name": "_describe",
          "type": "string"
        },
        {
          "name": "_info",
          "type": "string"
        },
        {
          "name": "_tenancy",
          "type": "uint32"
        },
        {
          "name": "_rent",
          "type": "uint256"
        },
        {
          "name": "_hopeYou",
          "type": "string"
        }
      ],
      "name": "releaseHouse",
      "outputs": [
        {
          "name": "",
          "type": "bool"
        }
      ],
      "payable": false,
      "stateMutability": "nonpayable",
      "type": "function"
    },
    {
      "constant": false,
      "inputs": [
        {
          "name": "_houseId",
          "type": "bytes32"
        }
      ],
      "name": "deadReleaseHouse",
      "outputs": [
        {
          "name": "",
          "type": "bool"
        }
      ],
      "payable": false,
      "stateMutability": "nonpayable",
      "type": "function"
    },
    {
      "constant": false,
      "inputs": [
        {
          "name": "_houseId",
          "type": "bytes32"
        },
        {
          "name": "_realRent",
          "type": "uint256"
        }
      ],
      "name": "requestSign",
      "outputs": [
        {
          "name": "",
          "type": "bool"
        }
      ],
      "payable": false,
      "stateMutability": "nonpayable",
      "type": "function"
    },
    {
      "constant": false,
      "inputs": [
        {
          "name": "_houseId",
          "type": "bytes32"
        },
        {
          "name": "_name",
          "type": "string"
        },
        {
          "name": "_signHowLong",
          "type": "uint256"
        },
        {
          "name": "_rental",
          "type": "uint256"
        },
        {
          "name": "_yearRent",
          "type": "uint256"
        }
      ],
      "name": "signAgreement",
      "outputs": [
        {
          "name": "",
          "type": "bool"
        }
      ],
      "payable": false,
      "stateMutability": "nonpayable",
      "type": "function"
    },
    {
      "constant": false,
      "inputs": [
        {
          "name": "_houseId",
          "type": "bytes32"
        },
        {
          "name": "amount",
          "type": "uint256"
        }
      ],
      "name": "withdrawPromise",
      "outputs": [],
      "payable": false,
      "stateMutability": "nonpayable",
      "type": "function"
    },
    {
      "constant": false,
      "inputs": [
        {
          "name": "_houseId",
          "type": "bytes32"
        }
      ],
      "name": "getHouseBasicInfo",
      "outputs": [
        {
          "name": "",
          "type": "bytes32"
        },
        {
          "name": "",
          "type": "uint8"
        },
        {
          "name": "",
          "type": "string"
        },
        {
          "name": "",
          "type": "uint8"
        },
        {
          "name": "",
          "type": "string"
        },
        {
          "name": "",
          "type": "string"
        },
        {
          "name": "",
          "type": "string"
        },
        {
          "name": "",
          "type": "address"
        }
      ],
      "payable": false,
      "stateMutability": "nonpayable",
      "type": "function"
    },
    {
      "constant": false,
      "inputs": [
        {
          "name": "_houseId",
          "type": "bytes32"
        }
      ],
      "name": "getHouseReleaseInfo",
      "outputs": [
        {
          "name": "",
          "type": "uint8"
        },
        {
          "name": "",
          "type": "uint32"
        },
        {
          "name": "",
          "type": "uint256"
        },
        {
          "name": "",
          "type": "uint256"
        },
        {
          "name": "",
          "type": "uint256"
        },
        {
          "name": "",
          "type": "bool"
        }
      ],
      "payable": false,
      "stateMutability": "nonpayable",
      "type": "function"
    },
    {
      "constant": false,
      "inputs": [
        {
          "name": "_houseId",
          "type": "bytes32"
        },
        {
          "name": "_reason",
          "type": "string"
        }
      ],
      "name": "breakContract",
      "outputs": [
        {
          "name": "money",
          "type": "uint256"
        }
      ],
      "payable": false,
      "stateMutability": "nonpayable",
      "type": "function"
    },
    {
      "constant": false,
      "inputs": [
        {
          "name": "_houseId",
          "type": "bytes32"
        },
        {
          "name": "_ratingIndex",
          "type": "uint8"
        },
        {
          "name": "_ramark",
          "type": "string"
        }
      ],
      "name": "commentHouse",
      "outputs": [
        {
          "name": "",
          "type": "bool"
        }
      ],
      "payable": false,
      "stateMutability": "nonpayable",
      "type": "function"
    },
    {
      "constant": false,
      "inputs": [
        {
          "name": "_viewer",
          "type": "address"
        }
      ],
      "name": "getCreditRecord",
      "outputs": [
        {
          "name": "",
          "type": "uint256"
        }
      ],
      "payable": false,
      "stateMutability": "nonpayable",
      "type": "function"
    },
    {
      "constant": false,
      "inputs": [
        {
          "name": "_leaser",
          "type": "address"
        },
        {
          "name": "_renter",
          "type": "address"
        },
        {
          "name": "_lockKey",
          "type": "address"
        }
      ],
      "name": "sendKey",
      "outputs": [
        {
          "name": "",
          "type": "bool"
        }
      ],
      "payable": false,
      "stateMutability": "nonpayable",
      "type": "function"
    },
    {
      "constant": false,
      "inputs": [
        {
          "name": "_amount",
          "type": "uint256"
        }
      ],
      "name": "raisePromiseMoney",
      "outputs": [],
      "payable": false,
      "stateMutability": "nonpayable",
      "type": "function"
    },
    {
      "constant": false,
      "inputs": [
        {
          "name": "_promiseAmount",
          "type": "uint256"
        }
      ],
      "name": "setPromiseMoney",
      "outputs": [],
      "payable": false,
      "stateMutability": "nonpayable",
      "type": "function"
    },
    {
      "constant": false,
      "inputs": [],
      "name": "getPromiseMoney",
      "outputs": [
        {
          "name": "",
          "type": "uint256"
        }
      ],
      "payable": false,
      "stateMutability": "nonpayable",
      "type": "function"
    }
  ],
  "bytecode": "0x608060405260008060006101000a81548160ff021916908360058111156200002357fe5b02179055506000601960006101000a81548160ff021916908315150217905550733c13520bc27c8a38fd67533d02071e775da7b12f601960016101000a81548173ffffffffffffffffffffffffffffffffffffffff021916908373ffffffffffffffffffffffffffffffffffffffff16021790555073a4ef5514ccfe79b821a3f36a123e528e096cea28601a60006101000a81548173ffffffffffffffffffffffffffffffffffffffff021916908373ffffffffffffffffffffffffffffffffffffffff16021790555073f87932ee0e167f8b54209ca943af4fad93b3b8a0601b60006101000a81548173ffffffffffffffffffffffffffffffffffffffff021916908373ffffffffffffffffffffffffffffffffffffffff160217905550640ba43b7400601c55633b9aca00601d556317d78400601e553480156200016857600080fd5b50604051602080620062848339810180604052810190808051906020019092919050505033601760006101000a81548173ffffffffffffffffffffffffffffffffffffffff021916908373ffffffffffffffffffffffffffffffffffffffff16021790555080600060016101000a81548173ffffffffffffffffffffffffffffffffffffffff021916908373ffffffffffffffffffffffffffffffffffffffff16021790555050616065806200021f6000396000f300608060405260043610620001cf576000357c0100000000000000000000000000000000000000000000000000000000900463ffffffff16806326a824be14620001d45780633fa1b5bc146200024b57806340d1b53a146200027957806348875e6314620002e15780634e78e24814620003805780634ea6c040146200041e5780635094e23f146200046a5780635c2b6c1714620004fb5780635e2efd5214620005f25780635e9e27c4146200064857806374b231bd14620006a2578063872e857014620006fc57806389902b1b146200072a5780638da5cb5b14620009835780638e6c587914620009dd578063935c277e1462000a0d578063943afa9e1462000a3d578063948377a81462000a9757806396d81dc31462000cfd5780639d924cd41462000d2b578063a0975a5c1462000d85578063a448124b1462000dc3578063a58519171462000df1578063a9cc47181462000e4b578063b6131cf91462000e7d578063ba5d603a1462000f2d578063c3f11c861462000fbb578063c41bccaf1462001207578063c96e60c2146200128d578063e9038cbc14620012bb578063ef8736291462001438578063fa38d1f21462001492578063fc0c546a146200151c578063fe50ffcd1462001576575b600080fd5b348015620001e157600080fd5b50620001ec6200166d565b60405180886005811115620001fd57fe5b60ff1681526020018763ffffffff1663ffffffff1681526020018681526020018581526020018481526020018381526020018215151515815260200197505050505050505060405180910390f35b3480156200025857600080fd5b5062000263620016c7565b6040518082815260200191505060405180910390f35b3480156200028657600080fd5b50620002cb6004803603810190808035600019169060200190929190803573ffffffffffffffffffffffffffffffffffffffff169060200190929190505050620016cd565b6040518082815260200191505060405180910390f35b348015620002ee57600080fd5b50620003666004803603810190808035600019169060200190929190803560ff169060200190929190803590602001908201803590602001908080601f0160208091040260200160405190810160405280939291908181526020018383808284378201915050505050509192919290505050620016f2565b604051808215151515815260200191505060405180910390f35b3480156200038d57600080fd5b5062000404600480360381019080803573ffffffffffffffffffffffffffffffffffffffff169060200190929190803573ffffffffffffffffffffffffffffffffffffffff169060200190929190803573ffffffffffffffffffffffffffffffffffffffff16906020019092919050505062001e72565b604051808215151515815260200191505060405180910390f35b3480156200042b57600080fd5b5062000450600480360381019080803560001916906020019092919050505062001e7b565b604051808215151515815260200191505060405180910390f35b3480156200047757600080fd5b506200049c600480360381019080803560001916906020019092919050505062001f34565b60405180886005811115620004ad57fe5b60ff1681526020018763ffffffff1663ffffffff1681526020018681526020018581526020018481526020018381526020018215151515815260200197505050505050505060405180910390f35b3480156200050857600080fd5b506200052d600480360381019080803560001916906020019092919050505062001fa0565b604051808573ffffffffffffffffffffffffffffffffffffffff1673ffffffffffffffffffffffffffffffffffffffff1681526020018460ff1660ff16815260200180602001838152602001828103825284818151815260200191508051906020019080838360005b83811015620005b357808201518184015260208101905062000596565b50505050905090810190601f168015620005e15780820380516001836020036101000a031916815260200191505b509550505050505060405180910390f35b348015620005ff57600080fd5b506200062e60048036038101908080356000191690602001909291908035906020019092919050505062002099565b604051808215151515815260200191505060405180910390f35b3480156200065557600080fd5b5062000660620025c0565b604051808273ffffffffffffffffffffffffffffffffffffffff1673ffffffffffffffffffffffffffffffffffffffff16815260200191505060405180910390f35b348015620006af57600080fd5b50620006e6600480360381019080803573ffffffffffffffffffffffffffffffffffffffff169060200190929190505050620025e6565b6040518082815260200191505060405180910390f35b3480156200070957600080fd5b5062000714620025fe565b6040518082815260200191505060405180910390f35b3480156200073757600080fd5b506200075c600480360381019080803560001916906020019092919050505062002608565b6040518089600019166000191681526020018860ff1660ff168152602001806020018760ff1660ff1681526020018060200180602001806020018673ffffffffffffffffffffffffffffffffffffffff1673ffffffffffffffffffffffffffffffffffffffff16815260200185810385528b818151815260200191508051906020019080838360005b8381101562000802578082015181840152602081019050620007e5565b50505050905090810190601f168015620008305780820380516001836020036101000a031916815260200191505b50858103845289818151815260200191508051906020019080838360005b838110156200086b5780820151818401526020810190506200084e565b50505050905090810190601f168015620008995780820380516001836020036101000a031916815260200191505b50858103835288818151815260200191508051906020019080838360005b83811015620008d4578082015181840152602081019050620008b7565b50505050905090810190601f168015620009025780820380516001836020036101000a031916815260200191505b50858103825287818151815260200191508051906020019080838360005b838110156200093d57808201518184015260208101905062000920565b50505050905090810190601f1680156200096b5780820380516001836020036101000a031916815260200191505b509c5050505050505050505050505060405180910390f35b3480156200099057600080fd5b506200099b6200292a565b604051808273ffffffffffffffffffffffffffffffffffffffff1673ffffffffffffffffffffffffffffffffffffffff16815260200191505060405180910390f35b348015620009ea57600080fd5b5062000a0b6004803603810190808035906020019092919050505062002950565b005b34801562000a1a57600080fd5b5062000a3b60048036038101908080359060200190929190505050620029b7565b005b34801562000a4a57600080fd5b5062000a5562002a3d565b604051808273ffffffffffffffffffffffffffffffffffffffff1673ffffffffffffffffffffffffffffffffffffffff16815260200191505060405180910390f35b34801562000aa457600080fd5b5062000ac9600480360381019080803560001916906020019092919050505062002a63565b604051808a60ff1660ff1681526020018960ff1660ff1681526020018860ff1660ff1681526020018060200187600019166000191681526020018060200180602001806020018673ffffffffffffffffffffffffffffffffffffffff1673ffffffffffffffffffffffffffffffffffffffff16815260200185810385528b818151815260200191508051906020019080838360005b8381101562000b7b57808201518184015260208101905062000b5e565b50505050905090810190601f16801562000ba95780820380516001836020036101000a031916815260200191505b50858103845289818151815260200191508051906020019080838360005b8381101562000be457808201518184015260208101905062000bc7565b50505050905090810190601f16801562000c125780820380516001836020036101000a031916815260200191505b50858103835288818151815260200191508051906020019080838360005b8381101562000c4d57808201518184015260208101905062000c30565b50505050905090810190601f16801562000c7b5780820380516001836020036101000a031916815260200191505b50858103825287818151815260200191508051906020019080838360005b8381101562000cb657808201518184015260208101905062000c99565b50505050905090810190601f16801562000ce45780820380516001836020036101000a031916815260200191505b509d505050505050505050505050505060405180910390f35b34801562000d0a57600080fd5b5062000d1562002d68565b6040518082815260200191505060405180910390f35b34801562000d3857600080fd5b5062000d6f600480360381019080803573ffffffffffffffffffffffffffffffffffffffff16906020019092919050505062002d6e565b6040518082815260200191505060405180910390f35b34801562000d9257600080fd5b5062000dc160048036038101908080356000191690602001909291908035906020019092919050505062002d86565b005b34801562000dd057600080fd5b5062000ddb620036f7565b6040518082815260200191505060405180910390f35b34801562000dfe57600080fd5b5062000e35600480360381019080803573ffffffffffffffffffffffffffffffffffffffff169060200190929190505050620036fd565b6040518082815260200191505060405180910390f35b34801562000e5857600080fd5b5062000e6362003746565b604051808215151515815260200191505060405180910390f35b34801562000e8a57600080fd5b5062000f136004803603810190808035600019169060200190929190803590602001908201803590602001908080601f016020809104026020016040519081016040528093929190818152602001838380828437820191505050505050919291929080359060200190929190803590602001909291908035906020019092919050505062003759565b604051808215151515815260200191505060405180910390f35b34801562000f3a57600080fd5b5062000fa56004803603810190808035600019169060200190929190803590602001908201803590602001908080601f016020809104026020016040519081016040528093929190818152602001838380828437820191505050505050919291929050505062004167565b6040518082815260200191505060405180910390f35b34801562000fc857600080fd5b5062000fd3620043b1565b604051808a60ff1660ff1681526020018960ff1660ff1681526020018860ff1660ff1681526020018060200187600019166000191681526020018060200180602001806020018673ffffffffffffffffffffffffffffffffffffffff1673ffffffffffffffffffffffffffffffffffffffff16815260200185810385528b818151815260200191508051906020019080838360005b838110156200108557808201518184015260208101905062001068565b50505050905090810190601f168015620010b35780820380516001836020036101000a031916815260200191505b50858103845289818151815260200191508051906020019080838360005b83811015620010ee578082015181840152602081019050620010d1565b50505050905090810190601f1680156200111c5780820380516001836020036101000a031916815260200191505b50858103835288818151815260200191508051906020019080838360005b83811015620011575780820151818401526020810190506200113a565b50505050905090810190601f168015620011855780820380516001836020036101000a031916815260200191505b50858103825287818151815260200191508051906020019080838360005b83811015620011c0578082015181840152602081019050620011a3565b50505050905090810190601f168015620011ee5780820380516001836020036101000a031916815260200191505b509d505050505050505050505050505060405180910390f35b3480156200121457600080fd5b506200124b600480360381019080803573ffffffffffffffffffffffffffffffffffffffff169060200190929190505050620046a4565b604051808273ffffffffffffffffffffffffffffffffffffffff1673ffffffffffffffffffffffffffffffffffffffff16815260200191505060405180910390f35b3480156200129a57600080fd5b50620012a5620046d7565b6040518082815260200191505060405180910390f35b348015620012c857600080fd5b506200141e600480360381019080803590602001908201803590602001908080601f0160208091040260200160405190810160405280939291908181526020018383808284378201915050505050509192919290803560ff169060200190929190803590602001908201803590602001908080601f0160208091040260200160405190810160405280939291908181526020018383808284378201915050505050509192919290803590602001908201803590602001908080601f0160208091040260200160405190810160405280939291908181526020018383808284378201915050505050509192919290803563ffffffff16906020019092919080359060200190929190803590602001908201803590602001908080601f0160208091040260200160405190810160405280939291908181526020018383808284378201915050505050509192919290505050620046dd565b604051808215151515815260200191505060405180910390f35b3480156200144557600080fd5b506200145062005223565b604051808273ffffffffffffffffffffffffffffffffffffffff1673ffffffffffffffffffffffffffffffffffffffff16815260200191505060405180910390f35b3480156200149f57600080fd5b50620014c4600480360381019080803560001916906020019092919050505062005249565b60405180876005811115620014d557fe5b60ff1681526020018663ffffffff1663ffffffff16815260200185815260200184815260200183815260200182151515158152602001965050505050505060405180910390f35b3480156200152957600080fd5b506200153462005356565b604051808273ffffffffffffffffffffffffffffffffffffffff1673ffffffffffffffffffffffffffffffffffffffff16815260200191505060405180910390f35b3480156200158357600080fd5b50620015a860048036038101908080356000191690602001909291905050506200537c565b604051808573ffffffffffffffffffffffffffffffffffffffff1673ffffffffffffffffffffffffffffffffffffffff1681526020018460ff1660ff16815260200180602001838152602001828103825284818151815260200191508051906020019080838360005b838110156200162e57808201518184015260208101905062001611565b50505050905090810190601f1680156200165c5780820380516001836020036101000a031916815260200191505b509550505050505060405180910390f35b60098060000160009054906101000a900460ff16908060000160019054906101000a900463ffffffff16908060010154908060020154908060030154908060040154908060050160009054906101000a900460ff16905087565b601d5481565b6014602052816000526040600020602052806000526040600020600091509150505481565b60008060008033925060106000886000191660001916815260200190815260200160002091508160050160009054906101000a900460ff1615156200179f576040517f08c379a00000000000000000000000000000000000000000000000000000000081526004018080602001828103825260128152602001807f4e6f742066696e642074686520686f757365000000000000000000000000000081525060200191505060405180910390fd5b60036005811115620017ad57fe5b8260000160009054906101000a900460ff166005811115620017cb57fe5b14151562001841576040517f08c379a000000000000000000000000000000000000000000000000000000000815260040180806020018281038252601a8152602001807f486f7573652072656e74206973206e6f742066696e697368656400000000000081525060200191505060405180910390fd5b8273ffffffffffffffffffffffffffffffffffffffff16600f6000896000191660001916815260200190815260200160002060060160009054906101000a900473ffffffffffffffffffffffffffffffffffffffff1673ffffffffffffffffffffffffffffffffffffffff16141562001a53576080604051908101604052808473ffffffffffffffffffffffffffffffffffffffff1681526020018760ff1681526020018681526020014281525060126000896000191660001916815260200190815260200160002060008201518160000160006101000a81548173ffffffffffffffffffffffffffffffffffffffff021916908373ffffffffffffffffffffffffffffffffffffffff16021790555060208201518160000160146101000a81548160ff021916908360ff16021790555060408201518160010190805190602001906200199092919062005475565b50606082015181600201559050508560ff1660166000601560008773ffffffffffffffffffffffffffffffffffffffff1673ffffffffffffffffffffffffffffffffffffffff16815260200190815260200160002060009054906101000a900473ffffffffffffffffffffffffffffffffffffffff1673ffffffffffffffffffffffffffffffffffffffff1673ffffffffffffffffffffffffffffffffffffffff1681526020019081526020016000206000828254019250508190555062001bcf565b600f6000886000191660001916815260200190815260200160002060060160009054906101000a900473ffffffffffffffffffffffffffffffffffffffff1690508560ff16601660008373ffffffffffffffffffffffffffffffffffffffff1673ffffffffffffffffffffffffffffffffffffffff168152602001908152602001600020600082825401925050819055506080604051908101604052808473ffffffffffffffffffffffffffffffffffffffff1681526020018760ff1681526020018681526020014281525060136000896000191660001916815260200190815260200160002060008201518160000160006101000a81548173ffffffffffffffffffffffffffffffffffffffff021916908373ffffffffffffffffffffffffffffffffffffffff16021790555060208201518160000160146101000a81548160ff021916908360ff160217905550604082015181600101908051906020019062001bc092919062005475565b50606082015181600201559050505b600060019054906101000a900473ffffffffffffffffffffffffffffffffffffffff1673ffffffffffffffffffffffffffffffffffffffff166323b872dd601a60009054906101000a900473ffffffffffffffffffffffffffffffffffffffff1685601e546040518463ffffffff167c0100000000000000000000000000000000000000000000000000000000028152600401808473ffffffffffffffffffffffffffffffffffffffff1673ffffffffffffffffffffffffffffffffffffffff1681526020018373ffffffffffffffffffffffffffffffffffffffff1673ffffffffffffffffffffffffffffffffffffffff1681526020018281526020019350505050602060405180830381600087803b15801562001ced57600080fd5b505af115801562001d02573d6000803e3d6000fd5b505050506040513d602081101562001d1957600080fd5b810190808051906020019092919050505015151562001da0576040517f08c379a00000000000000000000000000000000000000000000000000000000081526004018080602001828103825260188152602001807f5265776172642064697374726962757465206661696c2021000000000000000081525060200191505060405180910390fd5b8273ffffffffffffffffffffffffffffffffffffffff167fe00565cac23b89445862d4ecd362723b9e9f34240198381286dd6fda616e411f8787604051808360ff1660ff16815260200180602001828103825283818151815260200191508051906020019080838360005b8381101562001e2857808201518184015260208101905062001e0b565b50505050905090810190601f16801562001e565780820380516001836020036101000a031916815260200191505b50935050505060405180910390a2600193505050509392505050565b60009392505050565b600080601060008460001916600019168152602001908152602001600020905080600401544211801562001ed857506002600581111562001eb857fe5b8160000160009054906101000a900460ff16600581111562001ed657fe5b145b1562001f2957600460106000856000191660001916815260200190815260200160002060000160006101000a81548160ff0219169083600581111562001f1a57fe5b02179055506001915062001f2e565b600091505b50919050565b60106020528060005260406000206000915090508060000160009054906101000a900460ff16908060000160019054906101000a900463ffffffff16908060010154908060020154908060030154908060040154908060050160009054906101000a900460ff16905087565b60136020528060005260406000206000915090508060000160009054906101000a900473ffffffffffffffffffffffffffffffffffffffff16908060000160149054906101000a900460ff1690806001018054600181600116156101000203166002900480601f016020809104026020016040519081016040528092919081815260200182805460018160011615610100020316600290048015620020895780601f106200205d5761010080835404028352916020019162002089565b820191906000526020600020905b8154815290600101906020018083116200206b57829003601f168201915b5050505050908060020154905084565b600080600080600f60008760001916600019168152602001908152602001600020925060106000876000191660001916815260200190815260200160002091503390508160050160009054906101000a900460ff16151562002163576040517f08c379a00000000000000000000000000000000000000000000000000000000081526004018080602001828103825260148152602001807f486f757365206973206e6f74206578697374656400000000000000000000000081525060200191505060405180910390fd5b6000809054906101000a900460ff1660058111156200217e57fe5b8260000160009054906101000a900460ff1660058111156200219c57fe5b14151562002212576040517f08c379a000000000000000000000000000000000000000000000000000000000815260040180806020018281038252601d8152602001807f486f757365205374617465206973206e6f7420696e2072656c6561736500000081525060200191505060405180910390fd5b600060019054906101000a900473ffffffffffffffffffffffffffffffffffffffff1673ffffffffffffffffffffffffffffffffffffffff166323b872dd82601b60009054906101000a900473ffffffffffffffffffffffffffffffffffffffff16886040518463ffffffff167c0100000000000000000000000000000000000000000000000000000000028152600401808473ffffffffffffffffffffffffffffffffffffffff1673ffffffffffffffffffffffffffffffffffffffff1681526020018373ffffffffffffffffffffffffffffffffffffffff1673ffffffffffffffffffffffffffffffffffffffff1681526020018281526020019350505050602060405180830381600087803b1580156200232e57600080fd5b505af115801562002343573d6000803e3d6000fd5b505050506040513d60208110156200235a57600080fd5b81019080805190602001909291905050501515620023e0576040517f08c379a00000000000000000000000000000000000000000000000000000000081526004018080602001828103825260188152602001807f54656e6174277320424c54206e6f7420656e6f7567682021000000000000000081525060200191505060405180910390fd5b600160106000886000191660001916815260200190815260200160002060000160006101000a81548160ff021916908360058111156200241c57fe5b02179055508460146000886000191660001916815260200190815260200160002060003373ffffffffffffffffffffffffffffffffffffffff1673ffffffffffffffffffffffffffffffffffffffff1681526020019081526020016000208190555080601560008560060160009054906101000a900473ffffffffffffffffffffffffffffffffffffffff1673ffffffffffffffffffffffffffffffffffffffff1673ffffffffffffffffffffffffffffffffffffffff16815260200190815260200160002060006101000a81548173ffffffffffffffffffffffffffffffffffffffff021916908373ffffffffffffffffffffffffffffffffffffffff160217905550601b60009054906101000a900473ffffffffffffffffffffffffffffffffffffffff1673ffffffffffffffffffffffffffffffffffffffff168173ffffffffffffffffffffffffffffffffffffffff167fbfdc11148cc21b67bed980165a827a1c62165d0142eb54e8ece815df7a4985a188886040518083600019166000191681526020018281526020019250505060405180910390a350505092915050565b601a60009054906101000a900473ffffffffffffffffffffffffffffffffffffffff1681565b60166020528060005260406000206000915090505481565b6000601c54905090565b600080606060006060806060600080600f60008b600019166000191681526020019081526020016000209050898160000160019054906101000a900460ff16826001018360000160029054906101000a900460ff168460030185600401866005018760060160009054906101000a900473ffffffffffffffffffffffffffffffffffffffff16858054600181600116156101000203166002900480601f016020809104026020016040519081016040528092919081815260200182805460018160011615610100020316600290048015620027275780601f10620026fb5761010080835404028352916020019162002727565b820191906000526020600020905b8154815290600101906020018083116200270957829003601f168201915b50505050509550838054600181600116156101000203166002900480601f016020809104026020016040519081016040528092919081815260200182805460018160011615610100020316600290048015620027c75780601f106200279b57610100808354040283529160200191620027c7565b820191906000526020600020905b815481529060010190602001808311620027a957829003601f168201915b50505050509350828054600181600116156101000203166002900480601f016020809104026020016040519081016040528092919081815260200182805460018160011615610100020316600290048015620028675780601f106200283b5761010080835404028352916020019162002867565b820191906000526020600020905b8154815290600101906020018083116200284957829003601f168201915b50505050509250818054600181600116156101000203166002900480601f016020809104026020016040519081016040528092919081815260200182805460018160011615610100020316600290048015620029075780601f10620028db5761010080835404028352916020019162002907565b820191906000526020600020905b815481529060010190602001808311620028e957829003601f168201915b505050505091509850985098509850985098509850985050919395975091939597565b601760009054906101000a900473ffffffffffffffffffffffffffffffffffffffff1681565b601760009054906101000a900473ffffffffffffffffffffffffffffffffffffffff1673ffffffffffffffffffffffffffffffffffffffff163373ffffffffffffffffffffffffffffffffffffffff16141515620029ad57600080fd5b80601c8190555050565b600081601c54811015151562002a35576040517f08c379a000000000000000000000000000000000000000000000000000000000815260040180806020018281038252601c8152602001807f70726f6d69736520616d6f756e74206973206e6f7420656e6f7567680000000081525060200191505060405180910390fd5b339150505050565b601960019054906101000a900473ffffffffffffffffffffffffffffffffffffffff1681565b600f6020528060005260406000206000915090508060000160009054906101000a900460ff16908060000160019054906101000a900460ff16908060000160029054906101000a900460ff1690806001018054600181600116156101000203166002900480601f01602080910402602001604051908101604052809291908181526020018280546001816001161561010002031660029004801562002b4c5780601f1062002b205761010080835404028352916020019162002b4c565b820191906000526020600020905b81548152906001019060200180831162002b2e57829003601f168201915b505050505090806002015490806003018054600181600116156101000203166002900480601f01602080910402602001604051908101604052809291908181526020018280546001816001161561010002031660029004801562002bf45780601f1062002bc85761010080835404028352916020019162002bf4565b820191906000526020600020905b81548152906001019060200180831162002bd657829003601f168201915b505050505090806004018054600181600116156101000203166002900480601f01602080910402602001604051908101604052809291908181526020018280546001816001161561010002031660029004801562002c965780601f1062002c6a5761010080835404028352916020019162002c96565b820191906000526020600020905b81548152906001019060200180831162002c7857829003601f168201915b505050505090806005018054600181600116156101000203166002900480601f01602080910402602001604051908101604052809291908181526020018280546001816001161561010002031660029004801562002d385780601f1062002d0c5761010080835404028352916020019162002d38565b820191906000526020600020905b81548152906001019060200180831162002d1a57829003601f168201915b5050505050908060060160009054906101000a900473ffffffffffffffffffffffffffffffffffffffff16905089565b601e5481565b60116020528060005260406000206000915090505481565b6000806000600f60008660001916600019168152602001908152602001600020925060106000866000191660001916815260200190815260200160002091508160050160009054906101000a900460ff16151562002e4c576040517f08c379a00000000000000000000000000000000000000000000000000000000081526004018080602001828103825260128152602001807f4e6f742066696e642074686520686f757365000000000000000000000000000081525060200191505060405180910390fd5b8260060160009054906101000a900473ffffffffffffffffffffffffffffffffffffffff1673ffffffffffffffffffffffffffffffffffffffff163373ffffffffffffffffffffffffffffffffffffffff1614151562002f3a576040517f08c379a00000000000000000000000000000000000000000000000000000000081526004018080602001828103825260218152602001807f49742063616e2062652063616c6c6564206f6e6c79206279206c616e646c6f7281526020017f640000000000000000000000000000000000000000000000000000000000000081525060400191505060405180910390fd5b6003600581111562002f4857fe5b8260000160009054906101000a900460ff16600581111562002f6657fe5b148062002f9d57506004600581111562002f7c57fe5b8260000160009054906101000a900460ff16600581111562002f9a57fe5b14155b151562003012576040517f08c379a000000000000000000000000000000000000000000000000000000000815260040180806020018281038252601a8152602001807f486f7573652072656e74206973206e6f742066696e697368656400000000000081525060200191505060405180910390fd5b83601160003373ffffffffffffffffffffffffffffffffffffffff1673ffffffffffffffffffffffffffffffffffffffff16815260200190815260200160002054118015620030615750600084115b1515620030d6576040517f08c379a000000000000000000000000000000000000000000000000000000000815260040180806020018281038252600e8152602001807f416d6f756e74206973206e6f742000000000000000000000000000000000000081525060200191505060405180910390fd5b600060019054906101000a900473ffffffffffffffffffffffffffffffffffffffff1673ffffffffffffffffffffffffffffffffffffffff166323b872dd601960019054906101000a900473ffffffffffffffffffffffffffffffffffffffff1633876040518463ffffffff167c0100000000000000000000000000000000000000000000000000000000028152600401808473ffffffffffffffffffffffffffffffffffffffff1673ffffffffffffffffffffffffffffffffffffffff1681526020018373ffffffffffffffffffffffffffffffffffffffff1673ffffffffffffffffffffffffffffffffffffffff1681526020018281526020019350505050602060405180830381600087803b158015620031f257600080fd5b505af115801562003207573d6000803e3d6000fd5b505050506040513d60208110156200321e57600080fd5b81019080805190602001909291905050501515620032a4576040517f08c379a000000000000000000000000000000000000000000000000000000000815260040180806020018281038252600e8152602001807f7769746864726177206572726f7200000000000000000000000000000000000081525060200191505060405180910390fd5b83601160003373ffffffffffffffffffffffffffffffffffffffff1673ffffffffffffffffffffffffffffffffffffffff1681526020019081526020016000205403601160003373ffffffffffffffffffffffffffffffffffffffff1673ffffffffffffffffffffffffffffffffffffffff16815260200190815260200160002081905550600060019054906101000a900473ffffffffffffffffffffffffffffffffffffffff1673ffffffffffffffffffffffffffffffffffffffff166323b872dd601b60009054906101000a900473ffffffffffffffffffffffffffffffffffffffff16601560003373ffffffffffffffffffffffffffffffffffffffff1673ffffffffffffffffffffffffffffffffffffffff16815260200190815260200160002060009054906101000a900473ffffffffffffffffffffffffffffffffffffffff16601460008a600019166000191681526020019081526020016000206000601560003373ffffffffffffffffffffffffffffffffffffffff1673ffffffffffffffffffffffffffffffffffffffff16815260200190815260200160002060009054906101000a900473ffffffffffffffffffffffffffffffffffffffff1673ffffffffffffffffffffffffffffffffffffffff1673ffffffffffffffffffffffffffffffffffffffff168152602001908152602001600020546040518463ffffffff167c0100000000000000000000000000000000000000000000000000000000028152600401808473ffffffffffffffffffffffffffffffffffffffff1673ffffffffffffffffffffffffffffffffffffffff1681526020018373ffffffffffffffffffffffffffffffffffffffff1673ffffffffffffffffffffffffffffffffffffffff1681526020018281526020019350505050602060405180830381600087803b1580156200355b57600080fd5b505af115801562003570573d6000803e3d6000fd5b505050506040513d60208110156200358757600080fd5b810190808051906020019092919050505015156200360d576040517f08c379a000000000000000000000000000000000000000000000000000000000815260040180806020018281038252600d8152602001807f5472616e73666572206661696c0000000000000000000000000000000000000081525060200191505060405180910390fd5b60006014600087600019166000191681526020019081526020016000206000601560003373ffffffffffffffffffffffffffffffffffffffff1673ffffffffffffffffffffffffffffffffffffffff16815260200190815260200160002060009054906101000a900473ffffffffffffffffffffffffffffffffffffffff1673ffffffffffffffffffffffffffffffffffffffff1673ffffffffffffffffffffffffffffffffffffffff1681526020019081526020016000208190555042905080601060008760001916600019168152602001908152602001600020600301819055505050505050565b60185481565b6000601660008373ffffffffffffffffffffffffffffffffffffffff1673ffffffffffffffffffffffffffffffffffffffff168152602001908152602001600020549050919050565b601960009054906101000a900460ff1681565b6000806000806060600080600f60008d600019166000191681526020019081526020016000209550601060008d6000191660001916815260200190815260200160002094508460050160009054906101000a900460ff16151562003825576040517f08c379a00000000000000000000000000000000000000000000000000000000081526004018080602001828103825260148152602001807f486f757365206973206e6f74206578697374656400000000000000000000000081525060200191505060405180910390fd5b600160058111156200383357fe5b8560000160009054906101000a900460ff1660058111156200385157fe5b141515620038c7576040517f08c379a000000000000000000000000000000000000000000000000000000000815260040180806020018281038252601f8152602001807f486f757365205374617465206973206e6f7420696e20776169742072656e740081525060200191505060405180910390fd5b429350808c8b8b87604051602001808673ffffffffffffffffffffffffffffffffffffffff1673ffffffffffffffffffffffffffffffffffffffff166c010000000000000000000000000281526014018560001916600019168152602001848152602001838152602001828152602001955050505050506040516020818303038152906040529250826040518082805190602001908083835b60208310151562003987578051825260208201915060208101905060208303925062003960565b6001836020036101000a038019825116818451168082178552505050505050905001915050604051809103902091503390508560060160009054906101000a900473ffffffffffffffffffffffffffffffffffffffff1673ffffffffffffffffffffffffffffffffffffffff168173ffffffffffffffffffffffffffffffffffffffff1614151562003e48576000601460008e6000191660001916815260200190815260200160002060008373ffffffffffffffffffffffffffffffffffffffff1673ffffffffffffffffffffffffffffffffffffffff1681526020019081526020016000205411151562003b0a576040517f08c379a00000000000000000000000000000000000000000000000000000000081526004018080602001828103825260238152602001807f52657175697265207468652074656e616e74206861766520656e6f756768206281526020017f6f6e64000000000000000000000000000000000000000000000000000000000081525060400191505060405180910390fd5b600060019054906101000a900473ffffffffffffffffffffffffffffffffffffffff1673ffffffffffffffffffffffffffffffffffffffff166323b872dd828860060160009054906101000a900473ffffffffffffffffffffffffffffffffffffffff168c6040518463ffffffff167c0100000000000000000000000000000000000000000000000000000000028152600401808473ffffffffffffffffffffffffffffffffffffffff1673ffffffffffffffffffffffffffffffffffffffff1681526020018373ffffffffffffffffffffffffffffffffffffffff1673ffffffffffffffffffffffffffffffffffffffff1681526020018281526020019350505050602060405180830381600087803b15801562003c2857600080fd5b505af115801562003c3d573d6000803e3d6000fd5b505050506040513d602081101562003c5457600080fd5b8101908080519060200190929190505050151562003cda576040517f08c379a00000000000000000000000000000000000000000000000000000000081526004018080602001828103825260188152602001807f54656e6174277320424c54206e6f7420656e6f7567682021000000000000000081525060200191505060405180910390fd5b600160009054906101000a900473ffffffffffffffffffffffffffffffffffffffff1673ffffffffffffffffffffffffffffffffffffffff1663b7b4de938d8d8c8e876040518663ffffffff167c0100000000000000000000000000000000000000000000000000000000028152600401808660001916600019168152602001806020018581526020018481526020018360001916600019168152602001828103825286818151815260200191508051906020019080838360005b8381101562003db257808201518184015260208101905062003d95565b50505050905090810190601f16801562003de05780820380516001836020036101000a031916815260200191505b509650505050505050602060405180830381600087803b15801562003e0457600080fd5b505af115801562003e19573d6000803e3d6000fd5b505050506040513d602081101562003e3057600080fd5b810190808051906020019092919050505050620040b7565b8a8c8760010188600301858d8f62003e5f620054fc565b808060200188600019166000191681526020018060200180602001876000191660001916815260200186815260200185815260200184810384528b818151815260200191508051906020019080838360005b8381101562003ece57808201518184015260208101905062003eb1565b50505050905090810190601f16801562003efc5780820380516001836020036101000a031916815260200191505b5084810383528981815460018160011615610100020316600290048152602001915080546001816001161561010002031660029004801562003f825780601f1062003f565761010080835404028352916020019162003f82565b820191906000526020600020905b81548152906001019060200180831162003f6457829003601f168201915b5050848103825288818154600181600116156101000203166002900481526020019150805460018160011615610100020316600290048015620040095780601f1062003fdd5761010080835404028352916020019162004009565b820191906000526020600020905b81548152906001019060200180831162003feb57829003601f168201915b50509a5050505050505050505050604051809103906000f08015801562004034573d6000803e3d6000fd5b50600160006101000a81548173ffffffffffffffffffffffffffffffffffffffff021916908373ffffffffffffffffffffffffffffffffffffffff1602179055506002601060008e6000191660001916815260200190815260200160002060000160006101000a81548160ff02191690836005811115620040b157fe5b02179055505b8073ffffffffffffffffffffffffffffffffffffffff167f6e173a618310a185d1e13d68c70212c75fa8754b2a670a1cfb4c1e3cfee6cf358d8c8c868960405180866000191660001916815260200185815260200184815260200183600019166000191681526020018281526020019550505050505060405180910390a283601060008e600019166000191681526020019081526020016000206003018190555050505050505095945050505050565b6000806000600f60008660001916600019168152602001908152602001600020915060106000866000191660001916815260200190815260200160002090508060050160009054906101000a900460ff1615156200422d576040517f08c379a000000000000000000000000000000000000000000000000000000000815260040180806020018281038252601c8152602001807f526571756972652074686520686f75736520697320657869737465640000000081525060200191505060405180910390fd5b3373ffffffffffffffffffffffffffffffffffffffff168260060160009054906101000a900473ffffffffffffffffffffffffffffffffffffffff1673ffffffffffffffffffffffffffffffffffffffff16148015620042b75750600060058111156200429657fe5b8160000160009054906101000a900460ff166005811115620042b457fe5b14155b156200434557601d54601160003373ffffffffffffffffffffffffffffffffffffffff1673ffffffffffffffffffffffffffffffffffffffff1681526020019081526020016000205403601160003373ffffffffffffffffffffffffffffffffffffffff1673ffffffffffffffffffffffffffffffffffffffff168152602001908152602001600020819055505b600460106000876000191660001916815260200190815260200160002060000160006101000a81548160ff021916908360058111156200438157fe5b02179055504260106000876000191660001916815260200190815260200160002060030181905550505092915050565b60028060000160009054906101000a900460ff16908060000160019054906101000a900460ff16908060000160029054906101000a900460ff1690806001018054600181600116156101000203166002900480601f016020809104026020016040519081016040528092919081815260200182805460018160011615610100020316600290048015620044885780601f106200445c5761010080835404028352916020019162004488565b820191906000526020600020905b8154815290600101906020018083116200446a57829003601f168201915b505050505090806002015490806003018054600181600116156101000203166002900480601f016020809104026020016040519081016040528092919081815260200182805460018160011615610100020316600290048015620045305780601f10620045045761010080835404028352916020019162004530565b820191906000526020600020905b8154815290600101906020018083116200451257829003601f168201915b505050505090806004018054600181600116156101000203166002900480601f016020809104026020016040519081016040528092919081815260200182805460018160011615610100020316600290048015620045d25780601f10620045a657610100808354040283529160200191620045d2565b820191906000526020600020905b815481529060010190602001808311620045b457829003601f168201915b505050505090806005018054600181600116156101000203166002900480601f016020809104026020016040519081016040528092919081815260200182805460018160011615610100020316600290048015620046745780601f10620046485761010080835404028352916020019162004674565b820191906000526020600020905b8154815290600101906020018083116200465657829003601f168201915b5050505050908060060160009054906101000a900473ffffffffffffffffffffffffffffffffffffffff16905089565b60156020528060005260406000206000915054906101000a900473ffffffffffffffffffffffffffffffffffffffff1681565b601c5481565b600080600080600042935062093a8084019250339150600060019054906101000a900473ffffffffffffffffffffffffffffffffffffffff1673ffffffffffffffffffffffffffffffffffffffff166323b872dd83601960019054906101000a900473ffffffffffffffffffffffffffffffffffffffff16601c546040518463ffffffff167c0100000000000000000000000000000000000000000000000000000000028152600401808473ffffffffffffffffffffffffffffffffffffffff1673ffffffffffffffffffffffffffffffffffffffff1681526020018373ffffffffffffffffffffffffffffffffffffffff1673ffffffffffffffffffffffffffffffffffffffff1681526020018281526020019350505050602060405180830381600087803b1580156200481157600080fd5b505af115801562004826573d6000803e3d6000fd5b505050506040513d60208110156200483d57600080fd5b81019080805190602001909291905050501515620048e9576040517f08c379a00000000000000000000000000000000000000000000000000000000081526004018080602001828103825260298152602001807f52656c6561736520686f757365206661696c212042616c616e6365206973206e81526020017f6f7420656e6f756768000000000000000000000000000000000000000000000081525060400191505060405180910390fd5b601c54601160008473ffffffffffffffffffffffffffffffffffffffff1673ffffffffffffffffffffffffffffffffffffffff16815260200190815260200160002081905550818484604051602001808473ffffffffffffffffffffffffffffffffffffffff1673ffffffffffffffffffffffffffffffffffffffff166c0100000000000000000000000002815260140183815260200182815260200193505050506040516020818303038152906040526040518082805190602001908083835b602083101515620049d15780518252602082019150602081019050602083039250620049aa565b6001836020036101000a0380198251168184511680821785525050505050509050019150506040518091039020905061012060405190810160405280600260ff168152602001600260ff1681526020018c60ff1681526020018d8152602001826000191681526020018b81526020018a81526020018781526020018373ffffffffffffffffffffffffffffffffffffffff16815250600260008201518160000160006101000a81548160ff021916908360ff16021790555060208201518160000160016101000a81548160ff021916908360ff16021790555060408201518160000160026101000a81548160ff021916908360ff160217905550606082015181600101908051906020019062004ae992919062005475565b506080820151816002019060001916905560a082015181600301908051906020019062004b1892919062005475565b5060c082015181600401908051906020019062004b3792919062005475565b5060e082015181600501908051906020019062004b5692919062005475565b506101008201518160060160006101000a81548173ffffffffffffffffffffffffffffffffffffffff021916908373ffffffffffffffffffffffffffffffffffffffff16021790555090505060e0604051908101604052806000809054906101000a900460ff16600581111562004bc957fe5b81526020018963ffffffff16815260200188815260200185815260200185815260200184815260200160011515815250600960008201518160000160006101000a81548160ff0219169083600581111562004c2057fe5b021790555060208201518160000160016101000a81548163ffffffff021916908363ffffffff16021790555060408201518160010155606082015181600201556080820151816003015560a0820151816004015560c08201518160050160006101000a81548160ff0219169083151502179055509050506002600f600083600019166000191681526020019081526020016000206000820160009054906101000a900460ff168160000160006101000a81548160ff021916908360ff1602179055506000820160019054906101000a900460ff168160000160016101000a81548160ff021916908360ff1602179055506000820160029054906101000a900460ff168160000160026101000a81548160ff021916908360ff1602179055506001820181600101908054600181600116156101000203166002900462004d679291906200550d565b50600282015481600201906000191690556003820181600301908054600181600116156101000203166002900462004da19291906200550d565b506004820181600401908054600181600116156101000203166002900462004dcb9291906200550d565b506005820181600501908054600181600116156101000203166002900462004df59291906200550d565b506006820160009054906101000a900473ffffffffffffffffffffffffffffffffffffffff168160060160006101000a81548173ffffffffffffffffffffffffffffffffffffffff021916908373ffffffffffffffffffffffffffffffffffffffff16021790555090505060096010600083600019166000191681526020019081526020016000206000820160009054906101000a900460ff168160000160006101000a81548160ff0219169083600581111562004eaf57fe5b02179055506000820160019054906101000a900463ffffffff168160000160016101000a81548163ffffffff021916908363ffffffff160217905550600182015481600101556002820154816002015560038201548160030155600482015481600401556005820160009054906101000a900460ff168160050160006101000a81548160ff0219169083151502179055509050508173ffffffffffffffffffffffffffffffffffffffff167f6c0f335772e3ecb575a7853a35e2a5523074a6bc5eb2ee109f835456626b27a58260028f8f8f8f8d6040518088600019166000191681526020018760ff168152602001806020018660ff1660ff16815260200180602001806020018060200185810385528a818151815260200191508051906020019080838360005b8381101562004ff457808201518184015260208101905062004fd7565b50505050905090810190601f168015620050225780820380516001836020036101000a031916815260200191505b50858103845288818151815260200191508051906020019080838360005b838110156200505d57808201518184015260208101905062005040565b50505050905090810190601f1680156200508b5780820380516001836020036101000a031916815260200191505b50858103835287818151815260200191508051906020019080838360005b83811015620050c6578082015181840152602081019050620050a9565b50505050905090810190601f168015620050f45780820380516001836020036101000a031916815260200191505b50858103825286818151815260200191508051906020019080838360005b838110156200512f57808201518184015260208101905062005112565b50505050905090810190601f1680156200515d5780820380516001836020036101000a031916815260200191505b509b50505050505050505050505060405180910390a27ff1d62b3c3461744c5ffd441bcd4fbf1ea20011639511beb3b61e2d8bf669c822816000809054906101000a900460ff168a8a88886001604051808860001916600019168152602001876005811115620051c957fe5b60ff1681526020018663ffffffff1663ffffffff1681526020018581526020018481526020018381526020018215151515815260200197505050505050505060405180910390a16001945050505050979650505050505050565b601b60009054906101000a900473ffffffffffffffffffffffffffffffffffffffff1681565b600080600080600080600060106000896000191660001916815260200190815260200160002090508060050160009054906101000a900460ff161515620052f8576040517f08c379a000000000000000000000000000000000000000000000000000000000815260040180806020018281038252601c8152602001807f526571756972652074686520686f75736520697320657869737465640000000081525060200191505060405180910390fd5b8060000160009054906101000a900460ff168160000160019054906101000a900463ffffffff168260010154836002015484600401548560050160009054906101000a900460ff169650965096509650965096505091939550919395565b600060019054906101000a900473ffffffffffffffffffffffffffffffffffffffff1681565b60126020528060005260406000206000915090508060000160009054906101000a900473ffffffffffffffffffffffffffffffffffffffff16908060000160149054906101000a900460ff1690806001018054600181600116156101000203166002900480601f016020809104026020016040519081016040528092919081815260200182805460018160011615610100020316600290048015620054655780601f10620054395761010080835404028352916020019162005465565b820191906000526020600020905b8154815290600101906020018083116200544757829003601f168201915b5050505050908060020154905084565b828054600181600116156101000203166002900490600052602060002090601f016020900481019282601f10620054b857805160ff1916838001178555620054e9565b82800160010185558215620054e9579182015b82811115620054e8578251825591602001919060010190620054cb565b5b509050620054f891906200559b565b5090565b604051610a7680620055c483390190565b828054600181600116156101000203166002900490600052602060002090601f016020900481019282601f1062005548578054855562005588565b828001600101855582156200558857600052602060002091601f016020900482015b82811115620055875782548255916001019190600101906200556a565b5b5090506200559791906200559b565b5090565b620055c091905b80821115620055bc576000816000905550600101620055a2565b5090565b905600608060405234801561001057600080fd5b50604051610a76380380610a768339810180604052810190808051820192919060200180519060200190929190805182019291906020018051820192919060200180519060200190929190805190602001909291908051906020019092919050505086600080886000191660001916815260200190815260200160002060000190805190602001906100a392919061017e565b5084600080886000191660001916815260200190815260200160002060020190805190602001906100d592919061017e565b50836000808860001916600019168152602001908152602001600020600301908051906020019061010792919061017e565b508260008088600019166000191681526020019081526020016000206004018160001916905550806000808860001916600019168152602001908152602001600020600601819055508160008088600019166000191681526020019081526020016000206007018190555050505050505050610223565b828054600181600116156101000203166002900490600052602060002090601f016020900481019282601f106101bf57805160ff19168380011785556101ed565b828001600101855582156101ed579182015b828111156101ec5782518255916020019190600101906101d1565b5b5090506101fa91906101fe565b5090565b61022091905b8082111561021c576000816000905550600101610204565b5090565b90565b610844806102326000396000f300608060405260043610610057576000357c0100000000000000000000000000000000000000000000000000000000900463ffffffff1680634c30fb461461005c578063b7b4de93146100b6578063f42eb76514610167575b600080fd5b34801561006857600080fd5b5061008b6004803603810190808035600019169060200190929190505050610373565b6040518085815260200184815260200183815260200182815260200194505050505060405180910390f35b3480156100c257600080fd5b5061014d6004803603810190808035600019169060200190929190803590602001908201803590602001908080601f0160208091040260200160405190810160405280939291908181526020018383808284378201915050505050509192919290803590602001909291908035906020019092919080356000191690602001909291905050506103bb565b604051808215151515815260200191505060405180910390f35b34801561017357600080fd5b5061019660048036038101908080356000191690602001909291905050506104ac565b60405180806020018060200180602001806020018760001916600019168152602001866000191660001916815260200185810385528b818151815260200191508051906020019080838360005b838110156101fe5780820151818401526020810190506101e3565b50505050905090810190601f16801561022b5780820380516001836020036101000a031916815260200191505b5085810384528a818151815260200191508051906020019080838360005b83811015610264578082015181840152602081019050610249565b50505050905090810190601f1680156102915780820380516001836020036101000a031916815260200191505b50858103835289818151815260200191508051906020019080838360005b838110156102ca5780820151818401526020810190506102af565b50505050905090810190601f1680156102f75780820380516001836020036101000a031916815260200191505b50858103825288818151815260200191508051906020019080838360005b83811015610330578082015181840152602081019050610315565b50505050905090810190601f16801561035d5780820380516001836020036101000a031916815260200191505b509a505050505050505050505060405180910390f35b60008060008060008060008760001916600019168152602001908152602001600020905080600701548160080154826009015483600a01549450945094509450509193509193565b600080600042915062015180601e86020282019050866000808a600019166000191681526020019081526020016000206001019080519060200190610401929190610773565b5085600c026000808a6000191660001916815260200190815260200160002060080181905550816000808a6000191660001916815260200190815260200160002060090181905550806000808a60001916600019168152602001908152602001600020600a018190555060016000808a60001916600019168152602001908152602001600020600b0160006101000a81548160ff021916908315150217905550505095945050505050565b6060806060806000806000806000896000191660001916815260200190815260200160002090508060000181600101826002018360030184600401548560050154858054600181600116156101000203166002900480601f0160208091040260200160405190810160405280929190818152602001828054600181600116156101000203166002900480156105825780601f1061055757610100808354040283529160200191610582565b820191906000526020600020905b81548152906001019060200180831161056557829003601f168201915b50505050509550848054600181600116156101000203166002900480601f01602080910402602001604051908101604052809291908181526020018280546001816001161561010002031660029004801561061e5780601f106105f35761010080835404028352916020019161061e565b820191906000526020600020905b81548152906001019060200180831161060157829003601f168201915b50505050509450838054600181600116156101000203166002900480601f0160208091040260200160405190810160405280929190818152602001828054600181600116156101000203166002900480156106ba5780601f1061068f576101008083540402835291602001916106ba565b820191906000526020600020905b81548152906001019060200180831161069d57829003601f168201915b50505050509350828054600181600116156101000203166002900480601f0160208091040260200160405190810160405280929190818152602001828054600181600116156101000203166002900480156107565780601f1061072b57610100808354040283529160200191610756565b820191906000526020600020905b81548152906001019060200180831161073957829003601f168201915b505050505092509650965096509650965096505091939550919395565b828054600181600116156101000203166002900490600052602060002090601f016020900481019282601f106107b457805160ff19168380011785556107e2565b828001600101855582156107e2579182015b828111156107e15782518255916020019190600101906107c6565b5b5090506107ef91906107f3565b5090565b61081591905b808211156108115760008160009055506001016107f9565b5090565b905600a165627a7a723058209fce28172e66d65eee9b0dab91d710d9a5e50184a430b7c8db0322a8064c3d9b0029a165627a7a7230582073cf0f81cb02de5d90c0696c735edcc482a862c574dba6be06182268a45a57cb0029",
  "source": "pragma solidity ^0.4.24;\n\ncontract ERC20Interface {\n    function totalSupply() public view returns (uint256 _totalSupply);\n    function balanceOf(address _owner) public view returns (uint256 balance);\n    function transfer(address _to, uint256 _value) public returns (bool success);\n    function transferFrom(address _from, address _to, uint256 _value) public returns (bool success);\n    function approve(address _spender, uint256 _value) public returns (bool success);\n    function allowance(address _owner, address _spender) public view returns (uint256 remaining);\n    event Transfer(address indexed _from, address indexed _to, uint256 _value);\n    event Approval(address indexed _owner, address indexed _spender, uint256 _value);\n}\n\ncontract RentToken is ERC20Interface {\n    using SafeMath for uint256;\n    uint256 public constant decimals = 8;\n\n    string public constant symbol = \"RentToken\";\n    string public constant name = \"BLT\";\n\n    uint256 public _totalSupply = 40 * (10 ** 8) * (10 ** 8); // total supply is 4 billion\n    uint256 public _maxIncreaseAmount = 2 * (10 ** 8) * (10 ** 8); //  every time max increase 20 millions\n    uint256 public _increaseInterval = 1  years;  // 6 month interval can increase\n\n    // Owner of this contract\n    address public owner;\n\n    // Balances AAC for each account\n    mapping(address => uint256) public  balances;\n\n    // Owner of account approves the transfer of an amount to another account\n    mapping(address => mapping (address => uint256)) public  allowed;\n\n    // List of approved investors\n    mapping(address => bool) public approvedInvestorList;\n\n    // deposit\n    mapping(address => uint256) public deposit;\n\n\n    // totalTokenSold\n    uint256 public totalTokenSold = 0;\n    uint256 public releaseTokenTime = block.timestamp;\n\n    /**\n     * @dev Fix for the ERC20 short address attack.\n     */\n    modifier onlyPayloadSize(uint size) {\n      if(msg.data.length < size + 4) {\n        revert();\n      }\n      _;\n    }\n    /**\n    *  @dev Only owner can modifer \n    */\n    modifier onlyOwner() {\n        require(msg.sender == owner);\n        _;\n    }\n\n    /// @dev Constructor\n    constructor()\n        public {\n        owner = msg.sender;\n        balances[owner] = _totalSupply;\n    }\n\n    /// @dev Gets totalSupply\n    /// @return Total supply\n    function totalSupply()\n        public\n        view\n        returns (uint256) {\n        return _totalSupply;\n    }\n\n    /// @dev Gets account's balance\n    /// @param _addr Address of the account\n    /// @return Account balance\n    function balanceOf(address _addr)\n        public\n        view\n        returns (uint256) {\n        return balances[_addr];\n    }\n\n    /// @dev check address is approved investor\n    /// @param _addr address\n    function isApprovedInvestor(address _addr)\n        public\n        view\n        returns (bool) {\n        return approvedInvestorList[_addr];\n    }\n\n    /// @dev get ETH deposit\n    /// @param _addr address get deposit\n    /// @return amount deposit of an buyer\n    function getDeposit(address _addr)\n        public\n        view\n        returns(uint256){\n        return deposit[_addr];\n    }\n\n\n    /// @dev Transfers the balance from msg.sender to an account\n    /// @param _to Recipient address\n    /// @param _amount Transfered amount in unit\n    /// @return Transfer status\n    function transfer(address _to, uint256 _amount)\n        public\n\n        returns (bool) {\n        // if sender's balance has enough unit and amount >= 0,\n        //      and the sum is not overflow,\n        // then do transfer\n        require(_amount > 0);\n        balances[msg.sender] = balances[msg.sender].Sub(_amount);\n        balances[_to] = balances[_to].Add(_amount);\n        emit Transfer(msg.sender, _to, _amount);\n        return true;\n    }\n\n    // Send _value amount of tokens from address _from to address _to\n    // The transferFrom method is used for a withdraw workflow, allowing contracts to send\n    // tokens on your behalf, for example to \"deposit\" to a contract address and/or to charge\n    // fees in Sub-currencies; the command should fail unless the _from account has\n    // deliberately authorized the sender of the message via some mechanism; we propose\n    // these standardized APIs for approval:\n    function transferFrom(\n        address _from,\n        address _to,\n        uint256 _amount\n    )\n    public\n\n    returns (bool success) {\n        require(_amount > 0);\n        if (balances[_from] >= _amount) {\n            balances[_from] = balances[_from].Sub(_amount);\n            balances[_to] = balances[_to].Add(_amount);\n            emit Transfer(_from, _to, _amount);\n            return true;\n        } else {\n            return false;\n        }\n    }\n\n    // Allow _spender to withdraw from your account, multiple times, up to the _value amount.\n    // If this function is called again it overwrites the current allowance with _value.\n    function approve(address _spender, uint256 _amount)\n        public\n\n        returns (bool success) {\n        require((_amount == 0) || (allowed[msg.sender][_spender] == 0));\n        allowed[msg.sender][_spender] = _amount;\n        emit Approval(msg.sender, _spender, _amount);\n        return true;\n    }\n\n    // get allowance\n    function allowance(address _owner, address _spender)\n        public\n        view\n        returns (uint256 remaining) {\n        return allowed[_owner][_spender];\n    }\n\n    function increaseAmount() internal onlyOwner  {\n        uint256  nowTime = block.timestamp;\n        uint256 nextTime = releaseTokenTime.Add(_increaseInterval);\n        require(nextTime > nowTime);\n        _totalSupply = _totalSupply.Add(_maxIncreaseAmount);\n        uint256   timeInterval = 365 days;\n        _increaseInterval = _increaseInterval.Add(timeInterval);\n    } \n\n    function decreaseAmount(uint amount) internal onlyOwner {\n        _totalSupply = _totalSupply.Sub(amount);\n    }\n\n}\n\n/**\n * SafeMath\n * Math operations with safety checks that throw on error\n */\nlibrary SafeMath {\n\n  function Mul(uint256 a, uint256 b) internal pure returns (uint256) {\n    if (a == 0) {\n      return 0;\n    }\n    uint256 c = a * b;\n    assert(c / a == b);\n    return c;\n  }\n\n  function Div(uint256 a, uint256 b) internal pure returns (uint256) {\n    // assert(b > 0); // Solidity automatically throws when dividing by 0\n    uint256 c = a / b;\n    // assert(a == b * c + a % b); // There is no case in which this doesn't hold\n    return c;\n  }\n\n  function Sub(uint256 a, uint256 b) internal pure returns (uint256) {\n    assert(b <= a);\n    return a - b;\n  }\n\n  function Add(uint256 a, uint256 b) internal pure returns (uint256) {\n    uint256 c = a + b;\n    assert(c >= a);\n    return c;\n  }\n}\n\ncontract TenancyAgreement {\n\tstruct Agreement {\n\t\tstring  leaser; // \n\t\tstring  tenant; // \n\t\tstring  houseAddress; // \n\t\tstring describe; //   \n\t\tbytes32 leaserSign; //  \n\t\tbytes32 tenantSign; // \n\t\tuint256  leaseTerm; //\n\t\tuint256 rent; // \n\t\tuint256 yearRent; // \n\t\tuint256 startTime; // \n\t\tuint256 endTime; // \n\t\tbool    isSign; // \n\t}\n\tmapping(bytes32 => Agreement) agrees;\n\t/**\n\t * dev rent house agreement, landlord call this agreement.\n\t * Parm {_leaser: who rents out the house, _tenant: who rent the house, _houseId: the hash of the house,\n\t * _houseAddress: the house position, _describe: the house describe, _rental: monthly rent, _signHowLong: lease term}\n\t */\n\tconstructor(string _leaser, bytes32 _houseId, string _houseAddress, string _describe, bytes32 _signInfo, uint256 _rental, uint _signHowLong){\t\n\t\tagrees[_houseId].leaser = _leaser;\n\t\tagrees[_houseId].houseAddress = _houseAddress;\n\t\tagrees[_houseId].describe = _describe;\n\t\tagrees[_houseId].leaserSign = _signInfo;\n\t\tagrees[_houseId].leaseTerm = _signHowLong;\n\t\tagrees[_houseId].rent = _rental;\t\n\t}\n\t/* title: tenantSign\n\t*  dev: tenant call this method to sign the rent house agreement \n\t*  Param: \n\t*/\n\tfunction tenantSign(bytes32 _houseId, string _tenant, uint256 _rental, uint _signHowLong, \n\t\t\tbytes32 _signInfo) public returns(bool) {\n\t\tuint256 startTime = now;\n\t\tuint256 end  = startTime + (_signHowLong * 30) * 1 days;\n\t\tagrees[_houseId].tenant = _tenant;\n\t\tagrees[_houseId].yearRent = 12 * _rental;\n\t\tagrees[_houseId].startTime = startTime;\n\t\tagrees[_houseId].endTime = end;\n\t\tagrees[_houseId].isSign  = true;\n\t}\n\t/* title: getAgreement\n\t*  dev: According to the house hash, query the agreement. \n\t*  Param: \n\t*/\n\tfunction getAgreement(bytes32 _houseId) public returns(string, string, string, string, bytes32, bytes32) {\n\t\tAgreement ag = agrees[_houseId];\n\t\treturn (ag.leaser, ag.tenant, ag.houseAddress, ag.describe, ag.leaserSign, ag.tenantSign);\n\t}\n\t/* title: getRentTenancyInfo\n\t*  dev: Get Rent tenancy time inforamation \n\t*  Param: \n\t*/\n\tfunction getRentTenancyInfo(bytes32 _houseId) public returns(uint256, uint256, uint256, uint256) {\n\t\tAgreement ag = agrees[_houseId];\n\t\treturn (ag.rent, ag.yearRent, ag.startTime, ag.endTime);\n\t}\n}\n\ncontract RentBasic {\n\tenum HouseState {\n\t\tReleaseRent,  // \n\t\tWaitRent,   // \n\t\tRenting,  // \n\t\tEndRent,   // \n\t\tCance,   // \n\t\tReturnRent  // (dealine)\n\t}\n\n\tHouseState defaultState = HouseState.ReleaseRent;\n\t// \n\tstruct HouseInfo {\t\t\t\n\t\t\tuint8    landRate; //  1234\n\t\t    uint8    ratingIndex;  // \n\t\t    uint8    huxing;  // 1/2/3\t\t    \n\t\t\tstring   houseAddress; // \t\t\t\n\t\t\tbytes32  houseId;   // hash\n\t\t\tstring  descibe;\t// \n\t\t\tstring\t landlordInfo; // \t\t\t\n\t\t\tstring  hopeYou;  // \t\t\t\n\t\t\taddress  landlord; // \t\t\t\n\t}\n\t// \n\tstruct HouseReleaseInfo {\n\t\tHouseState    state;   // \n\t\tuint32        tenancy; // \n\t\tuint256       rent; // \n\t\tuint          releaseTime;  // \n\t\tuint          updateTime; // \n\t\tuint          dealineTime;  // \n\t\tbool          existed; // hashHouse\n\t}\n\t// \n\tstruct RemarkHouse {\n\t\taddress tenant; // \t\n\t\tuint8   ratingIndex; // \n\t\tstring remarkLandlord; // \n\t\tuint256 operateTime; // \n\t}\n\t// \n\tstruct RemarkTenant {\n\t\taddress leaser; // \n\t\tuint8   ratingIndex; // \n\t\tstring remarkTenant; // \n\t\tuint256 operateTime; // \n\t}\n\n\tRentToken public token;\n\tTenancyAgreement tenancyContract;\n\tHouseInfo public hsInformation;\n\tHouseReleaseInfo public hsReleaseInfo;\n\tmapping(bytes32 => HouseInfo) public houseInfos;  // \n\tmapping(bytes32 => HouseReleaseInfo) public hsReleaseInfos; // \n\tmapping(address => uint) public addrMoney;  // \n\tmapping(bytes32 => RemarkHouse) public remarks; // \n\tmapping(bytes32 => RemarkTenant) public remarkTenants; // \n\tmapping(bytes32 => mapping(address => uint)) public bonds; // \n\t// mapping(bytes32 => HouseRelation) releations; // hash\n\tmapping(address => address) public l2rMaps; // \n\tmapping(address => uint256) public creditManager; //  \n\n\taddress public owner; // \n\tuint256 public relBalance;\n\tbool public fail = false;\n\taddress public receiverPromiseMoney = 0x3c13520Bc27C8A38FD67533d02071e775da7b12F; // \n\taddress public distributeRemarkAddr = 0xA4ef5514CCfe79B821a3F36A123e528e096cEa28; // \n\taddress public saveTenanantAddr = 0xF87932Ee0e167f8B54209ca943af4Fad93B3B8A0; // \n\n\tuint256 public promiseAmount = 500 * (10 ** 8); // \n\tuint256 public punishAmount = 10 * (10 ** 8); // \n\tuint256 public remarkAmount = 4 * (10 ** 8); // \n\n\tevent ReleaseInfo(bytes32 houseHash, HouseState _defaultState, uint32 _tenancy, uint256 _rent, uint _releaseTime, uint _deadTime, bool existed);\t\n\tevent ReleaseHouseBasicInfo(bytes32 houseHash, uint8 rating,string _houseAddr,uint8 _huxing,string _describe, string _info, string _hopeYou,address indexed _landlord);\t\t\n\tevent SignContract(address indexed _sender, bytes32 _houseId, uint256 _signHowLong, uint256 _rental, bytes32 _signatrue, uint256 _time);\n\tevent CommentHouse(address indexed _commenter, uint8 _rating, string _ramark);\n\tevent RequestSign(address indexed _sender, bytes32 _houseId,uint256 _realRent, address indexed saveTenanantAddr);\n\t// event RenterRaiseCrowding(address indexed _receiver, uint256 _fundingGoal, uint256 _durationInMinutes, address indexed _tokenContractAddress);\n\t\n\tconstructor(ERC20Interface _token) {\n\t\towner = msg.sender;\n\t\ttoken = RentToken(_token);\n\t}\n\n\tmodifier gtMinMoney(uint amount) {\n\t\trequire(amount >= promiseAmount, \"promise amount is not enough\");\n\t\t_;\n\t}\n\n\tmodifier onlyOwner() {\n\t\trequire(msg.sender == owner);\n\t\t_;\n\t}\n\n\t/**\n\t * title lease\n\t * dev leaser rent out the house\n\t * Parm {_leaser: the address of the leaser, _lockKeythe key of the door , _value: the cash deposit}\n\t */\n\tfunction releaseHouse(string _houseAddr,uint8 _huxing,string _describe, string _info, uint32 _tenancy, uint256 _rent, string _hopeYou) public returns (bool) {\n\t\tuint256 nowTimes = now; \n\t\tuint256 deadTime = nowTimes + 7 days;\n\t\taddress houseOwer = msg.sender;\n\t\t// releaser should hold not less than 500 BLT\n\t\trequire(token.transferFrom(houseOwer, receiverPromiseMoney, promiseAmount),\"Release house fail! Balance is not enough\");\n\t\taddrMoney[houseOwer] = promiseAmount;\n\t\tbytes32 houseIds = keccak256(abi.encodePacked(houseOwer, nowTimes, deadTime));\n\t\thsInformation = HouseInfo({\t\t\t\t\n\t\t\tlandRate: 2,\t\t \n\t\t\tratingIndex: 2,\n\t\t\thuxing: _huxing,\t\t\t\n\t\t\thopeYou: _hopeYou,\n\t\t\thouseAddress: _houseAddr,\t\t\t\n\t\t\thouseId: houseIds, \n\t\t\tdescibe: _describe,\n\t\t\tlandlordInfo: _info,\n\t\t\tlandlord: houseOwer\t\t\t\n\t\t});\n\t\thsReleaseInfo = HouseReleaseInfo({\n\t\t\tstate: defaultState,\n\t\t\ttenancy: _tenancy,\n\t\t\trent: _rent,\n\t\t\treleaseTime: nowTimes,\n\t\t\tupdateTime: nowTimes,\n\t\t\tdealineTime: deadTime,\n\t\t\texisted: true\n\t\t});\n\t\thouseInfos[houseIds] = hsInformation;\n\t\thsReleaseInfos[houseIds] = hsReleaseInfo;\n\t\tReleaseHouseBasicInfo(houseIds, 2, _houseAddr, _huxing, _describe, _info, _hopeYou, houseOwer);\n\t\tReleaseInfo(houseIds, defaultState, _tenancy,_rent,nowTimes,deadTime,true);\n\t\treturn true;\n\t}\n\t/*\n\t* title deadReleaseHouse\n\t* dev check whether the house alread dealine\n\t* Param:  {_houseId: house hash} \n\t*/\n\tfunction deadReleaseHouse(bytes32 _houseId) returns(bool) {\n\t\tHouseReleaseInfo hsRelInfo = hsReleaseInfos[_houseId];\n\t\tif (now > hsRelInfo.dealineTime && hsRelInfo.state == HouseState.Renting) {\n\t\t\thsReleaseInfos[_houseId].state = HouseState.Cance;\n\t\t\treturn true;\n\t\t}\n\t\treturn false;\n\t}\n\t/**\n\t * title requestSign\n\t * dev tenant request sign the agreement.\n\t * Parm {_leaser: the address of the leaser, _rental: month rental, signHowLong: how long of the agreement}\n\t */\n\tfunction requestSign(bytes32 _houseId, uint256 _realRent) public returns (bool){\n\t\tHouseInfo hsInfo = houseInfos[_houseId];\n\t\tHouseReleaseInfo hsReInfo = hsReleaseInfos[_houseId];\n\t\taddress sender = msg.sender;\n\t\trequire(hsReInfo.existed, \"House is not existed\");\n\t\trequire(hsReInfo.state == defaultState, \"House State is not in release\");\n\t\trequire(token.transferFrom(sender, saveTenanantAddr, _realRent), \"Tenat's BLT not enough !\");\n\t\thsReleaseInfos[_houseId].state = HouseState.WaitRent;\n\t\tbonds[_houseId][msg.sender] = _realRent;\n\t\t// releations[_houseId].tenant = msg.sender;\n\t\tl2rMaps[hsInfo.landlord] = sender;\n\t\tRequestSign(sender, _houseId, _realRent, saveTenanantAddr);\n\t}\n\t/**\n\t * title signContract\n\t * dev leaser sign the agreement.\n\t * Parm {_leaser: the address of the leaser, _rental: month rental, signHowLong: how long of the agreement}\n\t */\n\tfunction signAgreement(bytes32 _houseId,string _name, uint _signHowLong,uint _rental, uint256 _yearRent) public returns (bool) {\n\t\tHouseInfo hsInfo = houseInfos[_houseId];\n\t\tHouseReleaseInfo hsReInfo = hsReleaseInfos[_houseId];\n\t\trequire(hsReInfo.existed, \"House is not existed\");\n\t\trequire(hsReInfo.state == HouseState.WaitRent, \"House State is not in wait rent\");\n\t\tuint256 nowTime = now;\n\t\t// pack message \n\t\tbytes memory message = abi.encodePacked(sender, _houseId, _signHowLong, _rental, nowTime);\n\t\t// sign the message\n\t\tbytes32 signatrue = keccak256(message);\n\t\taddress sender = msg.sender;\n\t\tif (sender != hsInfo.landlord) {\n\t\t\trequire(bonds[_houseId][sender] > 0, \"Require the tenant have enough bond\");\n\t\t\trequire(token.transferFrom(sender, hsInfo.landlord, _rental), \"Tenat's BLT not enough !\");\n\t\t\ttenancyContract.tenantSign(_houseId, _name, _rental, _signHowLong, signatrue);\n\t\t} else {\n\t\t\ttenancyContract = new TenancyAgreement(_name, _houseId, hsInfo.houseAddress, hsInfo.descibe, signatrue,\n\t\t        _rental, _signHowLong);\n\t\t\thsReleaseInfos[_houseId].state = HouseState.Renting;\n\t\t}\n\t\t// client start timer\n\t\tSignContract(sender, _houseId, _signHowLong, _rental, signatrue, nowTime);\n\t\thsReleaseInfos[_houseId].updateTime = nowTime;\n\t}\n\t/**\n\t * title signContract\n\t * dev  _renter and _leaser sign how long agreement. It may be also including approve, send key\n\t * Parm {_leaser: the address of the leaser, _renterthe address of the renter , signHowLong: how long of the agreement}\n\t */\n\t function withdrawPromise(bytes32 _houseId, uint amount) {\n\t \tHouseInfo hs = houseInfos[_houseId];\n\t \tHouseReleaseInfo reInfo = hsReleaseInfos[_houseId];\n\t \trequire(reInfo.existed, \"Not find the house\");\n\t \trequire(msg.sender == hs.landlord, \"It can be called only by landlord\");\n\t \trequire(reInfo.state == HouseState.EndRent || reInfo.state != HouseState.Cance, \"House rent is not finished\");\n\t \trequire(addrMoney[msg.sender] > amount && amount > 0 , \"Amount is not \");\n\t \trequire(token.transferFrom(receiverPromiseMoney, msg.sender, amount), \"withdraw error\");\n\t \taddrMoney[msg.sender] = addrMoney[msg.sender] - amount; // decrease the landlord promise amount.\n\t \t// Return the bond to the tenant\n\t \trequire(token.transferFrom(saveTenanantAddr, l2rMaps[msg.sender], bonds[_houseId][l2rMaps[msg.sender]]), \"Transfer fail\");\n\t \tbonds[_houseId][l2rMaps[msg.sender]] = 0;  // clear the tenant bond\n\t \tuint256 nowTime = now;\n\t \thsReleaseInfos[_houseId].updateTime = nowTime;\n\t }\n\t/**\n\t * title getHouseInfo\n\t * dev get release rent house information\n\t * Parm {_index: the house informaion position}\n\t */\n\tfunction getHouseBasicInfo(bytes32 _houseId) public returns(bytes32, uint8, string, uint8, string, \n\t\tstring, string, address) {\n\t\tHouseInfo houseInfo = houseInfos[_houseId];\n\t\treturn (_houseId, houseInfo.ratingIndex, houseInfo.houseAddress, houseInfo.huxing,houseInfo.descibe,\n\t\t\t  houseInfo.landlordInfo,houseInfo.hopeYou, houseInfo.landlord);\t\t\n\t}\n\t/**\n\t * title getHouseInfo\n\t * dev get release rent house information\n\t * Parm {_index: the house informaion position}\n\t */\n\tfunction getHouseReleaseInfo(bytes32 _houseId) public returns(HouseState, uint32, uint256, uint, uint, bool) {\n\t\tHouseReleaseInfo releaseInfo = hsReleaseInfos[_houseId];\n\t\trequire(releaseInfo.existed, \"Require the house is existed\");\n\t\treturn (releaseInfo.state, releaseInfo.tenancy, releaseInfo.rent, releaseInfo.releaseTime, releaseInfo.dealineTime, releaseInfo.existed);\t\t\n\t}\t\t\n\t\n\t/**\n\t * title breakContract\n\t * dev  who break the contract and how to record it. And it will run by the contract or anyone call it\n\t * Parm \n\t * TODO punishAmount\n\t */\n\tfunction breakContract(bytes32 _houseId, string _reason) public returns (uint256 money) {\n\t\tHouseInfo hs = houseInfos[_houseId];\n\t\tHouseReleaseInfo relInfo = hsReleaseInfos[_houseId];\n\t\trequire(relInfo.existed, \"Require the house is existed\");\t\t\n\t\tif (hs.landlord == msg.sender && relInfo.state != HouseState.ReleaseRent) {\n\t\t\taddrMoney[msg.sender] = addrMoney[msg.sender] - punishAmount;\n\t\t}\n\t\t// Update releaseHouse information\n\t\thsReleaseInfos[_houseId].state = HouseState.Cance;\n\t\thsReleaseInfos[_houseId].updateTime = now;\t\n\t}\n\t/**\n\t * title commentHouse\n\t * dev leaser and tenant comment echo other\n\t * Parm {_houseId: the house hash, _ratingIndex: remarkable record (1-10) , _ramark: remark about the house or the tenant}\n\t */\n\tfunction commentHouse(bytes32 _houseId, uint8 _ratingIndex, string _ramark) returns(bool) {\n\t\taddress sender = msg.sender;\n\t\tHouseReleaseInfo reInfo = hsReleaseInfos[_houseId];\n\t\trequire(reInfo.existed, \"Not find the house\");\n\t \trequire(reInfo.state == HouseState.EndRent, \"House rent is not finished\");\n\t\tif (houseInfos[_houseId].landlord == sender) {\n\t\t\tremarks[_houseId] = RemarkHouse(sender, _ratingIndex, _ramark, now);\n\t\t\tcreditManager[l2rMaps[sender]] += _ratingIndex; \n\t\t} else {\n\t\t\taddress landlord = houseInfos[_houseId].landlord;\n\t\t\tcreditManager[landlord] += _ratingIndex;\n\t\t\tremarkTenants[_houseId] = RemarkTenant(sender, _ratingIndex, _ramark, now);\n\t\t}\n\t\trequire(!token.transferFrom(distributeRemarkAddr,sender, remarkAmount), \"Reward distribute fail !\");\n\t\tCommentHouse(sender, _ratingIndex, _ramark);\n\t\treturn true;\n\t}\n\t/**\n\t * title getCreditRecord\n\t * dev Get the person of the address credit record\n\t * Parm {_viewer: the address of who viewed}\n\t */\n\tfunction getCreditRecord(address _viewer) returns(uint) {\n\t\treturn creditManager[_viewer];\n\t}\n\t/**\n\t * title sendKey\n\t * dev _leaser send the key to _renter\n\t * Parm {_leaser: the address of the leaser, _renterthe address of the renter , _lockKey: the key of the door}\n\t */\n\tfunction sendKey(address _leaser, address _renter, address _lockKey) public returns (bool) {\n\n\t}\n\t/**\n\t * title raisePromiseMoney\n\t * dev _renter and _leaser should raise a amount of the token as a promise\n\t * Parm {_addr: the address of the raise promise money, _lock_keythe key of the door , _value: the cash deposit}\n\t */\n\tfunction raisePromiseMoney(uint _amount) public gtMinMoney(_amount) {\n\t\taddress addr = msg.sender;\n\t\t// transfer(msg.sender, _amount);\n\t}\n\t/**\n\t * title setPromiseMoney\n\t * dev _leaser send the key to _renter\n\t * Parm {_leaser: the address of the leaser, _renterthe address of the renter , _lockKey: the key of the door}\n\t */\n\tfunction setPromiseMoney(uint256 _promiseAmount) public onlyOwner {\n\t\tpromiseAmount = _promiseAmount;\n\t}\n\n\tfunction getPromiseMoney() public returns(uint256) {\n\t\treturn promiseAmount;\n\t}\n\n}\n",
  "sourcePath": "/home/zhr/solspace/house_rent/contracts/houseinfo/house-0.4.sol",
  "compiler": {
    "name": "solc",
    "version": "0.4.24+commit.e67f0147.Emscripten.clang"
  },
  "schemaVersion": "3.0.11",
  "updatedAt": "2019-07-06T06:25:17.867Z",
  "devdoc": {
    "methods": {}
  },
  "userdoc": {
    "methods": {
      "breakContract(bytes32,string)": {
        "notice": "title breakContract dev  who break the contract and how to record it. And it will run by the contract or anyone call it Parm  TODO punishAmount"
      },
      "commentHouse(bytes32,uint8,string)": {
        "notice": "title commentHouse dev leaser and tenant comment echo other Parm {_houseId: the house hash, _ratingIndex: remarkable record (1-10) , _ramark: remark about the house or the tenant}"
      },
      "getCreditRecord(address)": {
        "notice": "title getCreditRecord dev Get the person of the address credit record Parm {_viewer: the address of who viewed}"
      },
      "getHouseBasicInfo(bytes32)": {
        "notice": "title getHouseInfo dev get release rent house information Parm {_index: the house informaion position}"
      },
      "getHouseReleaseInfo(bytes32)": {
        "notice": "title getHouseInfo dev get release rent house information Parm {_index: the house informaion position}"
      },
      "raisePromiseMoney(uint256)": {
        "notice": "title raisePromiseMoney dev _renter and _leaser should raise a amount of the token as a promise Parm {_addr: the address of the raise promise money, _lock_keythe key of the door , _value: the cash deposit}"
      },
      "releaseHouse(string,uint8,string,string,uint32,uint256,string)": {
        "notice": "title lease dev leaser rent out the house Parm {_leaser: the address of the leaser, _lockKeythe key of the door , _value: the cash deposit}"
      },
      "requestSign(bytes32,uint256)": {
        "notice": "title requestSign dev tenant request sign the agreement. Parm {_leaser: the address of the leaser, _rental: month rental, signHowLong: how long of the agreement}"
      },
      "sendKey(address,address,address)": {
        "notice": "title sendKey dev _leaser send the key to _renter Parm {_leaser: the address of the leaser, _renterthe address of the renter , _lockKey: the key of the door}"
      },
      "setPromiseMoney(uint256)": {
        "notice": "title setPromiseMoney dev _leaser send the key to _renter Parm {_leaser: the address of the leaser, _renterthe address of the renter , _lockKey: the key of the door}"
      },
      "signAgreement(bytes32,string,uint256,uint256,uint256)": {
        "notice": "title signContract dev leaser sign the agreement. Parm {_leaser: the address of the leaser, _rental: month rental, signHowLong: how long of the agreement}"
      },
      "withdrawPromise(bytes32,uint256)": {
        "notice": "title signContract dev  _renter and _leaser sign how long agreement. It may be also including approve, send key Parm {_leaser: the address of the leaser, _renterthe address of the renter , signHowLong: how long of the agreement}"
      }
    }
  }
}