{
  "contractName": "YingRentSale",
  "abi": [
    {
      "constant": true,
      "inputs": [],
      "name": "deadline",
      "outputs": [
        {
          "name": "",
          "type": "uint256"
        }
      ],
      "payable": false,
      "stateMutability": "view",
      "type": "function"
    },
    {
      "constant": true,
      "inputs": [],
      "name": "beneficiary",
      "outputs": [
        {
          "name": "",
          "type": "address"
        }
      ],
      "payable": false,
      "stateMutability": "view",
      "type": "function"
    },
    {
      "constant": true,
      "inputs": [],
      "name": "tokenReward",
      "outputs": [
        {
          "name": "",
          "type": "address"
        }
      ],
      "payable": false,
      "stateMutability": "view",
      "type": "function"
    },
    {
      "constant": true,
      "inputs": [
        {
          "name": "",
          "type": "address"
        }
      ],
      "name": "balanceOf",
      "outputs": [
        {
          "name": "",
          "type": "uint256"
        }
      ],
      "payable": false,
      "stateMutability": "view",
      "type": "function"
    },
    {
      "constant": true,
      "inputs": [],
      "name": "fundingGoal",
      "outputs": [
        {
          "name": "",
          "type": "uint256"
        }
      ],
      "payable": false,
      "stateMutability": "view",
      "type": "function"
    },
    {
      "constant": true,
      "inputs": [],
      "name": "amountRaised",
      "outputs": [
        {
          "name": "",
          "type": "uint256"
        }
      ],
      "payable": false,
      "stateMutability": "view",
      "type": "function"
    },
    {
      "constant": true,
      "inputs": [],
      "name": "price",
      "outputs": [
        {
          "name": "",
          "type": "uint256"
        }
      ],
      "payable": false,
      "stateMutability": "view",
      "type": "function"
    },
    {
      "inputs": [
        {
          "name": "ifSuccessfulSendTo",
          "type": "address"
        },
        {
          "name": "fundingGoalInEthers",
          "type": "uint256"
        },
        {
          "name": "durationInMinutes",
          "type": "uint256"
        },
        {
          "name": "finneyCostOfEachToken",
          "type": "uint256"
        },
        {
          "name": "tokenContractAddress",
          "type": "address"
        }
      ],
      "payable": false,
      "stateMutability": "nonpayable",
      "type": "constructor"
    },
    {
      "payable": true,
      "stateMutability": "payable",
      "type": "fallback"
    },
    {
      "anonymous": false,
      "inputs": [
        {
          "indexed": false,
          "name": "recipient",
          "type": "address"
        },
        {
          "indexed": false,
          "name": "totalAmountRaised",
          "type": "uint256"
        }
      ],
      "name": "GoalReached",
      "type": "event"
    },
    {
      "anonymous": false,
      "inputs": [
        {
          "indexed": false,
          "name": "backer",
          "type": "address"
        },
        {
          "indexed": false,
          "name": "amount",
          "type": "uint256"
        },
        {
          "indexed": false,
          "name": "isContribution",
          "type": "bool"
        }
      ],
      "name": "FundTransfer",
      "type": "event"
    },
    {
      "constant": false,
      "inputs": [],
      "name": "checkGoalReached",
      "outputs": [],
      "payable": false,
      "stateMutability": "nonpayable",
      "type": "function"
    },
    {
      "constant": false,
      "inputs": [],
      "name": "safeWithdrawal",
      "outputs": [],
      "payable": false,
      "stateMutability": "nonpayable",
      "type": "function"
    }
  ],
  "bytecode": "0x60806040526000600760006101000a81548160ff0219169083151502179055506000600760016101000a81548160ff02191690831515021790555034801561004657600080fd5b5060405160a080610b558339810180604052810190808051906020019092919080519060200190929190805190602001909291908051906020019092919080519060200190929190505050846000806101000a81548173ffffffffffffffffffffffffffffffffffffffff021916908373ffffffffffffffffffffffffffffffffffffffff160217905550670de0b6b3a76400008402600181905550603c8302420160038190555066038d7ea4c68000820260048190555080600560006101000a81548173ffffffffffffffffffffffffffffffffffffffff021916908373ffffffffffffffffffffffffffffffffffffffff1602179055505050505050610a02806101536000396000f300608060405260043610610099576000357c0100000000000000000000000000000000000000000000000000000000900463ffffffff16806301cb3b20146102ec57806329dcb0cf1461030357806338af3eed1461032e5780636e66f6e91461038557806370a08231146103dc5780637a3a0e84146104335780637b3e5e7b1461045e578063a035b1fe14610489578063fd6b7ef8146104b4575b6000600760019054906101000a900460ff161515156100b757600080fd5b34905061010c81600660003373ffffffffffffffffffffffffffffffffffffffff1673ffffffffffffffffffffffffffffffffffffffff168152602001908152602001600020546104cb90919063ffffffff16565b600660003373ffffffffffffffffffffffffffffffffffffffff1673ffffffffffffffffffffffffffffffffffffffff16815260200190815260200160002081905550610164816002546104cb90919063ffffffff16565b600281905550600560009054906101000a900473ffffffffffffffffffffffffffffffffffffffff1673ffffffffffffffffffffffffffffffffffffffff1663a9059cbb336101d46305f5e1006101c6600454876104e990919063ffffffff16565b61050490919063ffffffff16565b6040518363ffffffff167c0100000000000000000000000000000000000000000000000000000000028152600401808373ffffffffffffffffffffffffffffffffffffffff1673ffffffffffffffffffffffffffffffffffffffff16815260200182815260200192505050600060405180830381600087803b15801561025957600080fd5b505af115801561026d573d6000803e3d6000fd5b505050507fe842aea7a5f1b01049d752008c53c52890b1a6daf660cf39e8eec506112bbdf633826001604051808473ffffffffffffffffffffffffffffffffffffffff1673ffffffffffffffffffffffffffffffffffffffff16815260200183815260200182151515158152602001935050505060405180910390a150005b3480156102f857600080fd5b5061030161053f565b005b34801561030f57600080fd5b5061031861061f565b6040518082815260200191505060405180910390f35b34801561033a57600080fd5b50610343610625565b604051808273ffffffffffffffffffffffffffffffffffffffff1673ffffffffffffffffffffffffffffffffffffffff16815260200191505060405180910390f35b34801561039157600080fd5b5061039a61064a565b604051808273ffffffffffffffffffffffffffffffffffffffff1673ffffffffffffffffffffffffffffffffffffffff16815260200191505060405180910390f35b3480156103e857600080fd5b5061041d600480360381019080803573ffffffffffffffffffffffffffffffffffffffff169060200190929190505050610670565b6040518082815260200191505060405180910390f35b34801561043f57600080fd5b50610448610688565b6040518082815260200191505060405180910390f35b34801561046a57600080fd5b5061047361068e565b6040518082815260200191505060405180910390f35b34801561049557600080fd5b5061049e610694565b6040518082815260200191505060405180910390f35b3480156104c057600080fd5b506104c961069a565b005b60008082840190508381101515156104df57fe5b8091505092915050565b60008082848115156104f757fe5b0490508091505092915050565b60008060008414156105195760009150610538565b828402905082848281151561052a57fe5b0414151561053457fe5b8091505b5092915050565b6003544210151561061d57600154600254101515610601576001600760006101000a81548160ff0219169083151502179055507fec3f991caf7857d61663fd1bba1739e04abd4781238508cde554bb849d790c856000809054906101000a900473ffffffffffffffffffffffffffffffffffffffff16600254604051808373ffffffffffffffffffffffffffffffffffffffff1673ffffffffffffffffffffffffffffffffffffffff1681526020018281526020019250505060405180910390a15b6001600760016101000a81548160ff0219169083151502179055505b565b60035481565b6000809054906101000a900473ffffffffffffffffffffffffffffffffffffffff1681565b600560009054906101000a900473ffffffffffffffffffffffffffffffffffffffff1681565b60066020528060005260406000206000915090505481565b60015481565b60025481565b60045481565b6000600354421015156109d357600760009054906101000a900460ff16151561084b57600660003373ffffffffffffffffffffffffffffffffffffffff1673ffffffffffffffffffffffffffffffffffffffff1681526020019081526020016000205490506000600660003373ffffffffffffffffffffffffffffffffffffffff1673ffffffffffffffffffffffffffffffffffffffff16815260200190815260200160002081905550600081111561084a573373ffffffffffffffffffffffffffffffffffffffff166108fc829081150290604051600060405180830381858888f1935050505015610804577fe842aea7a5f1b01049d752008c53c52890b1a6daf660cf39e8eec506112bbdf633826000604051808473ffffffffffffffffffffffffffffffffffffffff1673ffffffffffffffffffffffffffffffffffffffff16815260200183815260200182151515158152602001935050505060405180910390a1610849565b80600660003373ffffffffffffffffffffffffffffffffffffffff1673ffffffffffffffffffffffffffffffffffffffff168152602001908152602001600020819055505b5b5b600760009054906101000a900460ff1680156108b357503373ffffffffffffffffffffffffffffffffffffffff166000809054906101000a900473ffffffffffffffffffffffffffffffffffffffff1673ffffffffffffffffffffffffffffffffffffffff16145b156109d2576000809054906101000a900473ffffffffffffffffffffffffffffffffffffffff1673ffffffffffffffffffffffffffffffffffffffff166108fc6002549081150290604051600060405180830381858888f19350505050156109b5577fe842aea7a5f1b01049d752008c53c52890b1a6daf660cf39e8eec506112bbdf66000809054906101000a900473ffffffffffffffffffffffffffffffffffffffff166002546000604051808473ffffffffffffffffffffffffffffffffffffffff1673ffffffffffffffffffffffffffffffffffffffff16815260200183815260200182151515158152602001935050505060405180910390a16109d1565b6000600760006101000a81548160ff0219169083151502179055505b5b5b505600a165627a7a723058202fd530e22dc0f050f5966a4f1eebc2d67d6bff5ef347f6baf2eb32c0c205aa600029",
  "source": "pragma solidity ^0.4.24;\n\ninterface token {\n    function transfer(address receiver, uint amount) external;\n}\n\ncontract YingRentSale {\n    using SafeMath for uint256;\n    address public beneficiary;  // 募资成功后的收款方\n    uint public fundingGoal;   // 募资额度\n    uint public amountRaised;   // 参与数量\n    uint public deadline;      // 募资截止期\n\n    uint public price;    //  token 与以太坊的汇率 , token卖多少钱\n    token public tokenReward;   // 要卖的token\n    mapping(address => uint256) public balanceOf;\n\n    bool fundingGoalReached = false;  // 众筹是否达到目标\n    bool crowdsaleClosed = false;   //  众筹是否结束\n\n    /**\n    * 事件可以用来跟踪信息\n    **/\n    event GoalReached(address recipient, uint totalAmountRaised);\n    event FundTransfer(address backer, uint amount, bool isContribution);\n\n    /**\n     *  构造函数, 设置相关属性\n     *  ifSuccessfulSendTo： 募资成功后的收款方（其实这里可以默认为合约创建者）\n     *  fundingGoalInEthers： 募资额度， 为了方便我们仅募3个ether\n     *  durationInMinutes： 募资时间\n     *  finneyCostOfEachToken 每个代币的价格, 这里为了方便使用了单位finney及值为：1 （1 ether = 1000 finney）\n     *  tokenContractAddress： 代币合约地址\n     */\n    function YingRentSale(\n        address ifSuccessfulSendTo,\n        uint fundingGoalInEthers,\n        uint durationInMinutes,\n        uint finneyCostOfEachToken,\n        address tokenContractAddress) {\n            beneficiary = ifSuccessfulSendTo;\n            fundingGoal = fundingGoalInEthers * 1 ether;\n            deadline = now + durationInMinutes * 1 minutes;\n            price = finneyCostOfEachToken * 1 finney;\n            tokenReward = token(tokenContractAddress);   // 传入已发布的 token 合约的地址来创建实例\n    }\n    /**\n     * 无函数名的Fallback函数，\n     * 在向合约转账时，这个函数会被调用\n     */\n    function () payable external {\n        require(!crowdsaleClosed);\n        uint amount = msg.value;\n        balanceOf[msg.sender] = balanceOf[msg.sender].Add(amount);\n        amountRaised = amountRaised.Add(amount);\n        tokenReward.transfer(msg.sender, amount.Div(price).Mul(10**8)); // Token decimal is 8\n        FundTransfer(msg.sender, amount, true);\n    }\n\n    /**\n    *  定义函数修改器modifier（作用和Python的装饰器很相似）\n    * 用于在函数执行前检查某种前置条件（判断通过之后才会继续执行该方法）\n    * _ 表示继续执行之后的代码\n    **/\n    modifier afterDeadline() { \n        if (now >= deadline) _; \n    }\n    /**\n     * 判断众筹是否完成融资目标， 这个方法使用了afterDeadline函数修改器\n     *\n     */\n    function checkGoalReached() afterDeadline {\n        if (amountRaised >= fundingGoal) {\n            fundingGoalReached = true;\n            GoalReached(beneficiary, amountRaised);\n        }\n        crowdsaleClosed = true;\n    }\n\n\n    /**\n     * 完成融资目标时，融资款发送到收款方\n     * 未完成融资目标时，执行退款\n     *\n     */\n    function safeWithdrawal() afterDeadline {\n        if (!fundingGoalReached) {\n            uint amount = balanceOf[msg.sender];\n            balanceOf[msg.sender] = 0;\n            if (amount > 0) {\n                if (msg.sender.send(amount)) {\n                    FundTransfer(msg.sender, amount, false);\n                } else {\n                    balanceOf[msg.sender] = amount;\n                }\n            }\n        }\n\n        if (fundingGoalReached && beneficiary == msg.sender) {\n            if (beneficiary.send(amountRaised)) {\n                FundTransfer(beneficiary, amountRaised, false);\n            } else {\n                //If we fail to send the funds to beneficiary, unlock funders balance\n                fundingGoalReached = false;\n            }\n        }\n    }\n}\n\n/**\n * SafeMath\n * Math operations with safety checks that throw on error\n */\nlibrary SafeMath {\n\n  function Mul(uint256 a, uint256 b) internal pure returns (uint256) {\n    if (a == 0) {\n      return 0;\n    }\n    uint256 c = a * b;\n    assert(c / a == b);\n    return c;\n  }\n\n  function Div(uint256 a, uint256 b) internal pure returns (uint256) {\n    // assert(b > 0); // Solidity automatically throws when dividing by 0\n    uint256 c = a / b;\n    // assert(a == b * c + a % b); // There is no case in which this doesn't hold\n    return c;\n  }\n\n  function Sub(uint256 a, uint256 b) internal pure returns (uint256) {\n    assert(b <= a);\n    return a - b;\n  }\n\n  function Add(uint256 a, uint256 b) internal pure returns (uint256) {\n    uint256 c = a + b;\n    assert(c >= a);\n    return c;\n  }\n}",
  "sourcePath": "/home/zhr/solspace/house_rent/contracts/crowdsale/crowsale.sol",
  "compiler": {
    "name": "solc",
    "version": "0.4.24+commit.e67f0147.Emscripten.clang"
  },
  "schemaVersion": "3.0.11",
  "updatedAt": "2019-07-06T06:25:17.848Z",
  "devdoc": {
    "methods": {}
  },
  "userdoc": {
    "methods": {
      "checkGoalReached()": {
        "notice": "判断众筹是否完成融资目标， 这个方法使用了afterDeadline函数修改器     "
      },
      "safeWithdrawal()": {
        "notice": "完成融资目标时，融资款发送到收款方 未完成融资目标时，执行退款     "
      }
    }
  }
}